{
  "contractName": "Resolver",
  "abi": [
    {
      "inputs": [
        {
          "internalType": "address",
          "name": "_serverSigner",
          "type": "address"
        }
      ],
      "stateMutability": "nonpayable",
      "type": "constructor"
    },
    {
      "anonymous": false,
      "inputs": [
        {
          "indexed": true,
          "internalType": "bytes32",
          "name": "hash",
          "type": "bytes32"
        }
      ],
      "name": "ResolverCreateEvent",
      "type": "event"
    },
    {
      "anonymous": false,
      "inputs": [
        {
          "indexed": true,
          "internalType": "bytes32",
          "name": "hash",
          "type": "bytes32"
        }
      ],
      "name": "ResolverDeleteEvent",
      "type": "event"
    },
    {
      "anonymous": false,
      "inputs": [
        {
          "indexed": true,
          "internalType": "bytes32",
          "name": "hash",
          "type": "bytes32"
        },
        {
          "indexed": false,
          "internalType": "string",
          "name": "updateType",
          "type": "string"
        }
      ],
      "name": "ResolverUpdateEvent",
      "type": "event"
    },
    {
      "anonymous": false,
      "inputs": [
        {
          "indexed": true,
          "internalType": "bytes32",
          "name": "hash",
          "type": "bytes32"
        }
      ],
      "name": "SecondaryResolverCreateEvent",
      "type": "event"
    },
    {
      "anonymous": false,
      "inputs": [
        {
          "indexed": true,
          "internalType": "bytes32",
          "name": "hash",
          "type": "bytes32"
        }
      ],
      "name": "SecondaryResolverDeleteEvent",
      "type": "event"
    },
    {
      "inputs": [
        {
          "internalType": "bytes32",
          "name": "idHash",
          "type": "bytes32"
        }
      ],
      "name": "resolve",
      "outputs": [
        {
          "components": [
            {
              "internalType": "string",
              "name": "cid",
              "type": "string"
            },
            {
              "internalType": "bool",
              "name": "allowServer",
              "type": "bool"
            },
            {
              "internalType": "address",
              "name": "owner",
              "type": "address"
            }
          ],
          "internalType": "struct Resolver.Config",
          "name": "resolver",
          "type": "tuple"
        }
      ],
      "stateMutability": "view",
      "type": "function"
    },
    {
      "inputs": [
        {
          "internalType": "bytes32",
          "name": "idHash",
          "type": "bytes32"
        },
        {
          "internalType": "string",
          "name": "cid",
          "type": "string"
        },
        {
          "internalType": "bytes",
          "name": "signature",
          "type": "bytes"
        },
        {
          "internalType": "bool",
          "name": "allowServer",
          "type": "bool"
        }
      ],
      "name": "createResolver",
      "outputs": [],
      "stateMutability": "nonpayable",
      "type": "function"
    },
    {
      "inputs": [
        {
          "internalType": "bytes32",
          "name": "idHash",
          "type": "bytes32"
        },
        {
          "internalType": "string",
          "name": "cid",
          "type": "string"
        },
        {
          "internalType": "bytes",
          "name": "signature",
          "type": "bytes"
        }
      ],
      "name": "updateResolverCid",
      "outputs": [
        {
          "internalType": "bool",
          "name": "success",
          "type": "bool"
        }
      ],
      "stateMutability": "nonpayable",
      "type": "function"
    },
    {
      "inputs": [
        {
          "internalType": "bytes32",
          "name": "idHash",
          "type": "bytes32"
        },
        {
          "internalType": "bool",
          "name": "allowServer",
          "type": "bool"
        }
      ],
      "name": "updateResolverAllowServer",
      "outputs": [
        {
          "internalType": "bool",
          "name": "success",
          "type": "bool"
        }
      ],
      "stateMutability": "nonpayable",
      "type": "function"
    },
    {
      "inputs": [
        {
          "internalType": "bytes32",
          "name": "idHash",
          "type": "bytes32"
        }
      ],
      "name": "deleteResolver",
      "outputs": [
        {
          "internalType": "bool",
          "name": "success",
          "type": "bool"
        }
      ],
      "stateMutability": "nonpayable",
      "type": "function"
    },
    {
      "inputs": [
        {
          "internalType": "bytes32",
          "name": "idHash",
          "type": "bytes32"
        },
        {
          "internalType": "bytes32",
          "name": "primaryResolverHash",
          "type": "bytes32"
        }
      ],
      "name": "createSecondaryResolver",
      "outputs": [],
      "stateMutability": "nonpayable",
      "type": "function"
    },
    {
      "inputs": [
        {
          "internalType": "bytes32",
          "name": "idHash",
          "type": "bytes32"
        }
      ],
      "name": "deleteSecondaryResolver",
      "outputs": [
        {
          "internalType": "bool",
          "name": "success",
          "type": "bool"
        }
      ],
      "stateMutability": "nonpayable",
      "type": "function"
    },
    {
      "inputs": [
        {
          "internalType": "address",
          "name": "_newServerSigner",
          "type": "address"
        }
      ],
      "name": "changeServerSigner",
      "outputs": [],
      "stateMutability": "nonpayable",
      "type": "function"
    }
  ],
  "bytecode": "0x60806040523480156200001157600080fd5b5060405162002b2238038062002b22833981810160405281019062000037919062000129565b336000806101000a81548173ffffffffffffffffffffffffffffffffffffffff021916908373ffffffffffffffffffffffffffffffffffffffff16021790555080600160006101000a81548173ffffffffffffffffffffffffffffffffffffffff021916908373ffffffffffffffffffffffffffffffffffffffff160217905550506200015b565b600080fd5b600073ffffffffffffffffffffffffffffffffffffffff82169050919050565b6000620000f182620000c4565b9050919050565b6200010381620000e4565b81146200010f57600080fd5b50565b6000815190506200012381620000f8565b92915050565b600060208284031215620001425762000141620000bf565b5b6000620001528482850162000112565b91505092915050565b6129b7806200016b6000396000f3fe608060405234801561001057600080fd5b50600436106100885760003560e01c80635f0acb1e1161005b5780635f0acb1e14610139578063611ab921146101695780639cc77a6614610185578063ec612b76146101b557610088565b80632f87e2431461008d57806338150249146100bd5780635230b282146100d95780635c23bdf514610109575b600080fd5b6100a760048036038101906100a29190611c74565b6101d1565b6040516100b49190611cbc565b60405180910390f35b6100d760048036038101906100d29190611cd7565b6104e0565b005b6100f360048036038101906100ee9190611d43565b61083b565b6040516101009190611cbc565b60405180910390f35b610123600480360381019061011e9190611c74565b610c05565b6040516101309190611eb3565b60405180910390f35b610153600480360381019061014e9190611f90565b610ea2565b6040516101609190611cbc565b60405180910390f35b610183600480360381019061017e9190612051565b6111fc565b005b61019f600480360381019061019a9190611c74565b61133d565b6040516101ac9190611cbc565b60405180910390f35b6101cf60048036038101906101ca919061207e565b61160b565b005b60006003600083815260200190815260200160002054600060026000838152602001908152602001600020600001805461020a90612154565b90500361024c576040517f08c379a0000000000000000000000000000000000000000000000000000000008152600401610243906121e2565b60405180910390fd5b6002600082815260200190815260200160002060010160009054906101000a900460ff1661031d576002600082815260200190815260200160002060010160019054906101000a900473ffffffffffffffffffffffffffffffffffffffff1673ffffffffffffffffffffffffffffffffffffffff163373ffffffffffffffffffffffffffffffffffffffff1614610318576040517f08c379a000000000000000000000000000000000000000000000000000000000815260040161030f906121e2565b60405180910390fd5b61041a565b6002600082815260200190815260200160002060010160019054906101000a900473ffffffffffffffffffffffffffffffffffffffff1673ffffffffffffffffffffffffffffffffffffffff163373ffffffffffffffffffffffffffffffffffffffff1614806103da5750600160009054906101000a900473ffffffffffffffffffffffffffffffffffffffff1673ffffffffffffffffffffffffffffffffffffffff163373ffffffffffffffffffffffffffffffffffffffff16145b610419576040517f08c379a0000000000000000000000000000000000000000000000000000000008152600401610410906121e2565b60405180910390fd5b5b600060e01b7bffffffffffffffffffffffffffffffffffffffffffffffffffffffff1916600360008581526020019081526020016000205403610492576040517f08c379a00000000000000000000000000000000000000000000000000000000081526004016104899061224e565b60405180910390fd5b6003600084815260200190815260200160002060009055827f8941cd292398e3ee88d189814a24ac2ec2bf676e73149ecd108335a456339b3f60405160405180910390a26001915050919050565b80600060026000838152602001908152602001600020600001805461050490612154565b905003610546576040517f08c379a000000000000000000000000000000000000000000000000000000000815260040161053d906121e2565b60405180910390fd5b6002600082815260200190815260200160002060010160009054906101000a900460ff16610617576002600082815260200190815260200160002060010160019054906101000a900473ffffffffffffffffffffffffffffffffffffffff1673ffffffffffffffffffffffffffffffffffffffff163373ffffffffffffffffffffffffffffffffffffffff1614610612576040517f08c379a0000000000000000000000000000000000000000000000000000000008152600401610609906121e2565b60405180910390fd5b610714565b6002600082815260200190815260200160002060010160019054906101000a900473ffffffffffffffffffffffffffffffffffffffff1673ffffffffffffffffffffffffffffffffffffffff163373ffffffffffffffffffffffffffffffffffffffff1614806106d45750600160009054906101000a900473ffffffffffffffffffffffffffffffffffffffff1673ffffffffffffffffffffffffffffffffffffffff163373ffffffffffffffffffffffffffffffffffffffff16145b610713576040517f08c379a000000000000000000000000000000000000000000000000000000000815260040161070a906121e2565b60405180910390fd5b5b600060e01b7bffffffffffffffffffffffffffffffffffffffffffffffffffffffff19168303610779576040517f08c379a0000000000000000000000000000000000000000000000000000000008152600401610770906122ba565b60405180910390fd5b600060e01b7bffffffffffffffffffffffffffffffffffffffffffffffffffffffff19166003600085815260200190815260200160002054146107f1576040517f08c379a00000000000000000000000000000000000000000000000000000000081526004016107e89061224e565b60405180910390fd5b816003600085815260200190815260200160002081905550827f6c2d6fa498f74dfe95ea9fbc1493bf603dcc0ee5d261e05599c4c2ca54fb78d660405160405180910390a2505050565b600082600060026000838152602001908152602001600020600001805461086190612154565b9050036108a3576040517f08c379a000000000000000000000000000000000000000000000000000000000815260040161089a906121e2565b60405180910390fd5b6002600082815260200190815260200160002060010160009054906101000a900460ff16610974576002600082815260200190815260200160002060010160019054906101000a900473ffffffffffffffffffffffffffffffffffffffff1673ffffffffffffffffffffffffffffffffffffffff163373ffffffffffffffffffffffffffffffffffffffff161461096f576040517f08c379a0000000000000000000000000000000000000000000000000000000008152600401610966906121e2565b60405180910390fd5b610a71565b6002600082815260200190815260200160002060010160019054906101000a900473ffffffffffffffffffffffffffffffffffffffff1673ffffffffffffffffffffffffffffffffffffffff163373ffffffffffffffffffffffffffffffffffffffff161480610a315750600160009054906101000a900473ffffffffffffffffffffffffffffffffffffffff1673ffffffffffffffffffffffffffffffffffffffff163373ffffffffffffffffffffffffffffffffffffffff16145b610a70576040517f08c379a0000000000000000000000000000000000000000000000000000000008152600401610a67906121e2565b60405180910390fd5b5b82158015610ae15750600073ffffffffffffffffffffffffffffffffffffffff166002600086815260200190815260200160002060010160019054906101000a900473ffffffffffffffffffffffffffffffffffffffff1673ffffffffffffffffffffffffffffffffffffffff16145b8015610b3b5750600160009054906101000a900473ffffffffffffffffffffffffffffffffffffffff1673ffffffffffffffffffffffffffffffffffffffff163373ffffffffffffffffffffffffffffffffffffffff1614155b15610b9657336002600086815260200190815260200160002060010160016101000a81548173ffffffffffffffffffffffffffffffffffffffff021916908373ffffffffffffffffffffffffffffffffffffffff1602179055505b826002600086815260200190815260200160002060010160006101000a81548160ff021916908315150217905550837f5e2c12e2a480d0c3bcc27fc263a56550bf4c49819e3c62cd67c617775f8d78db604051610bf290612326565b60405180910390a2600191505092915050565b610c0d611b9e565b600060036000848152602001908152602001600020549050600060e01b7bffffffffffffffffffffffffffffffffffffffffffffffffffffffff19168103610d785760026000848152602001908152602001600020604051806060016040529081600082018054610c7d90612154565b80601f0160208091040260200160405190810160405280929190818152602001828054610ca990612154565b8015610cf65780601f10610ccb57610100808354040283529160200191610cf6565b820191906000526020600020905b815481529060010190602001808311610cd957829003601f168201915b505050505081526020016001820160009054906101000a900460ff161515151581526020016001820160019054906101000a900473ffffffffffffffffffffffffffffffffffffffff1673ffffffffffffffffffffffffffffffffffffffff1673ffffffffffffffffffffffffffffffffffffffff1681525050915050610e9d565b60026000828152602001908152602001600020604051806060016040529081600082018054610da690612154565b80601f0160208091040260200160405190810160405280929190818152602001828054610dd290612154565b8015610e1f5780601f10610df457610100808354040283529160200191610e1f565b820191906000526020600020905b815481529060010190602001808311610e0257829003601f168201915b505050505081526020016001820160009054906101000a900460ff161515151581526020016001820160019054906101000a900473ffffffffffffffffffffffffffffffffffffffff1673ffffffffffffffffffffffffffffffffffffffff1673ffffffffffffffffffffffffffffffffffffffff16815250509150505b919050565b6000856000600260008381526020019081526020016000206000018054610ec890612154565b905003610f0a576040517f08c379a0000000000000000000000000000000000000000000000000000000008152600401610f01906121e2565b60405180910390fd5b6002600082815260200190815260200160002060010160009054906101000a900460ff16610fdb576002600082815260200190815260200160002060010160019054906101000a900473ffffffffffffffffffffffffffffffffffffffff1673ffffffffffffffffffffffffffffffffffffffff163373ffffffffffffffffffffffffffffffffffffffff1614610fd6576040517f08c379a0000000000000000000000000000000000000000000000000000000008152600401610fcd906121e2565b60405180910390fd5b6110d8565b6002600082815260200190815260200160002060010160019054906101000a900473ffffffffffffffffffffffffffffffffffffffff1673ffffffffffffffffffffffffffffffffffffffff163373ffffffffffffffffffffffffffffffffffffffff1614806110985750600160009054906101000a900473ffffffffffffffffffffffffffffffffffffffff1673ffffffffffffffffffffffffffffffffffffffff163373ffffffffffffffffffffffffffffffffffffffff16145b6110d7576040517f08c379a00000000000000000000000000000000000000000000000000000000081526004016110ce906121e2565b60405180910390fd5b5b85856040516020016110eb929190612385565b6040516020818303038152906040528051906020012084848080601f016020809104026020016040519081016040528093929190818152602001838380828437600081840152601f19601f820116905080830192505050505050506111513383836118a5565b611190576040517f08c379a00000000000000000000000000000000000000000000000000000000081526004016111879061224e565b60405180910390fd5b8787600260008c815260200190815260200160002060000191826111b592919061258e565b50887f5e2c12e2a480d0c3bcc27fc263a56550bf4c49819e3c62cd67c617775f8d78db6040516111e4906126aa565b60405180910390a26001935050505095945050505050565b60008054906101000a900473ffffffffffffffffffffffffffffffffffffffff1673ffffffffffffffffffffffffffffffffffffffff163373ffffffffffffffffffffffffffffffffffffffff161461128a576040517f08c379a00000000000000000000000000000000000000000000000000000000081526004016112819061273c565b60405180910390fd5b600073ffffffffffffffffffffffffffffffffffffffff168173ffffffffffffffffffffffffffffffffffffffff16036112f9576040517f08c379a00000000000000000000000000000000000000000000000000000000081526004016112f0906127a8565b60405180910390fd5b80600160006101000a81548173ffffffffffffffffffffffffffffffffffffffff021916908373ffffffffffffffffffffffffffffffffffffffff16021790555050565b600081600060026000838152602001908152602001600020600001805461136390612154565b9050036113a5576040517f08c379a000000000000000000000000000000000000000000000000000000000815260040161139c906121e2565b60405180910390fd5b6002600082815260200190815260200160002060010160009054906101000a900460ff16611476576002600082815260200190815260200160002060010160019054906101000a900473ffffffffffffffffffffffffffffffffffffffff1673ffffffffffffffffffffffffffffffffffffffff163373ffffffffffffffffffffffffffffffffffffffff1614611471576040517f08c379a0000000000000000000000000000000000000000000000000000000008152600401611468906121e2565b60405180910390fd5b611573565b6002600082815260200190815260200160002060010160019054906101000a900473ffffffffffffffffffffffffffffffffffffffff1673ffffffffffffffffffffffffffffffffffffffff163373ffffffffffffffffffffffffffffffffffffffff1614806115335750600160009054906101000a900473ffffffffffffffffffffffffffffffffffffffff1673ffffffffffffffffffffffffffffffffffffffff163373ffffffffffffffffffffffffffffffffffffffff16145b611572576040517f08c379a0000000000000000000000000000000000000000000000000000000008152600401611569906121e2565b60405180910390fd5b5b60026000848152602001908152602001600020600080820160006115979190611bd7565b6001820160006101000a81549060ff02191690556001820160016101000a81549073ffffffffffffffffffffffffffffffffffffffff02191690555050827fb5ef9bfb7f8d9879f431e41551758202e8c18d08bada7bec57d1720e1249c46760405160405180910390a26001915050919050565b848460405160200161161e929190612385565b6040516020818303038152906040528051906020012083838080601f016020809104026020016040519081016040528093929190818152602001838380828437600081840152601f19601f820116905080830192505050505050506116843383836118a5565b6116c3576040517f08c379a00000000000000000000000000000000000000000000000000000000081526004016116ba9061224e565b60405180910390fd5b600060e01b7bffffffffffffffffffffffffffffffffffffffffffffffffffffffff19168803611728576040517f08c379a000000000000000000000000000000000000000000000000000000000815260040161171f906122ba565b60405180910390fd5b6000600260008a8152602001908152602001600020600001805461174b90612154565b90501461178d576040517f08c379a0000000000000000000000000000000000000000000000000000000008152600401611784906122ba565b60405180910390fd5b6000600260008a8152602001908152602001600020905087878260000191826117b792919061258e565b50838160010160006101000a81548160ff021916908315150217905550600160009054906101000a900473ffffffffffffffffffffffffffffffffffffffff1673ffffffffffffffffffffffffffffffffffffffff163373ffffffffffffffffffffffffffffffffffffffff161461186d57338160010160016101000a81548173ffffffffffffffffffffffffffffffffffffffff021916908373ffffffffffffffffffffffffffffffffffffffff1602179055505b887f147f6e062549071a98dc97031ae1dcfe00f003c45d227c179ade9e52b62df63d60405160405180910390a2505050505050505050565b60008060006118b48585611a6b565b91509150600060048111156118cc576118cb6127c8565b5b8160048111156118df576118de6127c8565b5b14801561191757508573ffffffffffffffffffffffffffffffffffffffff168273ffffffffffffffffffffffffffffffffffffffff16145b1561192757600192505050611a64565b6000808773ffffffffffffffffffffffffffffffffffffffff16631626ba7e60e01b888860405160240161195c92919061285b565b604051602081830303815290604052907bffffffffffffffffffffffffffffffffffffffffffffffffffffffff19166020820180517bffffffffffffffffffffffffffffffffffffffffffffffffffffffff83818316178352505050506040516119c691906128c7565b600060405180830381855afa9150503d8060008114611a01576040519150601f19603f3d011682016040523d82523d6000602084013e611a06565b606091505b5091509150818015611a19575060208151145b8015611a5d5750631626ba7e60e01b7bffffffffffffffffffffffffffffffffffffffffffffffffffffffff191681806020019051810190611a5b91906128f3565b145b9450505050505b9392505050565b6000806041835103611aac5760008060006020860151925060408601519150606086015160001a9050611aa087828585611abc565b94509450505050611ab5565b60006002915091505b9250929050565b6000807f7fffffffffffffffffffffffffffffff5d576e7357a4501ddfe92f46681b20a08360001c1115611af7576000600391509150611b95565b600060018787878760405160008152602001604052604051611b1c949392919061293c565b6020604051602081039080840390855afa158015611b3e573d6000803e3d6000fd5b505050602060405103519050600073ffffffffffffffffffffffffffffffffffffffff168173ffffffffffffffffffffffffffffffffffffffff1603611b8c57600060019250925050611b95565b80600092509250505b94509492505050565b604051806060016040528060608152602001600015158152602001600073ffffffffffffffffffffffffffffffffffffffff1681525090565b508054611be390612154565b6000825580601f10611bf55750611c14565b601f016020900490600052602060002090810190611c139190611c17565b5b50565b5b80821115611c30576000816000905550600101611c18565b5090565b600080fd5b600080fd5b6000819050919050565b611c5181611c3e565b8114611c5c57600080fd5b50565b600081359050611c6e81611c48565b92915050565b600060208284031215611c8a57611c89611c34565b5b6000611c9884828501611c5f565b91505092915050565b60008115159050919050565b611cb681611ca1565b82525050565b6000602082019050611cd16000830184611cad565b92915050565b60008060408385031215611cee57611ced611c34565b5b6000611cfc85828601611c5f565b9250506020611d0d85828601611c5f565b9150509250929050565b611d2081611ca1565b8114611d2b57600080fd5b50565b600081359050611d3d81611d17565b92915050565b60008060408385031215611d5a57611d59611c34565b5b6000611d6885828601611c5f565b9250506020611d7985828601611d2e565b9150509250929050565b600081519050919050565b600082825260208201905092915050565b60005b83811015611dbd578082015181840152602081019050611da2565b60008484015250505050565b6000601f19601f8301169050919050565b6000611de582611d83565b611def8185611d8e565b9350611dff818560208601611d9f565b611e0881611dc9565b840191505092915050565b611e1c81611ca1565b82525050565b600073ffffffffffffffffffffffffffffffffffffffff82169050919050565b6000611e4d82611e22565b9050919050565b611e5d81611e42565b82525050565b60006060830160008301518482036000860152611e808282611dda565b9150506020830151611e956020860182611e13565b506040830151611ea86040860182611e54565b508091505092915050565b60006020820190508181036000830152611ecd8184611e63565b905092915050565b600080fd5b600080fd5b600080fd5b60008083601f840112611efa57611ef9611ed5565b5b8235905067ffffffffffffffff811115611f1757611f16611eda565b5b602083019150836001820283011115611f3357611f32611edf565b5b9250929050565b60008083601f840112611f5057611f4f611ed5565b5b8235905067ffffffffffffffff811115611f6d57611f6c611eda565b5b602083019150836001820283011115611f8957611f88611edf565b5b9250929050565b600080600080600060608688031215611fac57611fab611c34565b5b6000611fba88828901611c5f565b955050602086013567ffffffffffffffff811115611fdb57611fda611c39565b5b611fe788828901611ee4565b9450945050604086013567ffffffffffffffff81111561200a57612009611c39565b5b61201688828901611f3a565b92509250509295509295909350565b61202e81611e42565b811461203957600080fd5b50565b60008135905061204b81612025565b92915050565b60006020828403121561206757612066611c34565b5b60006120758482850161203c565b91505092915050565b6000806000806000806080878903121561209b5761209a611c34565b5b60006120a989828a01611c5f565b965050602087013567ffffffffffffffff8111156120ca576120c9611c39565b5b6120d689828a01611ee4565b9550955050604087013567ffffffffffffffff8111156120f9576120f8611c39565b5b61210589828a01611f3a565b9350935050606061211889828a01611d2e565b9150509295509295509295565b7f4e487b7100000000000000000000000000000000000000000000000000000000600052602260045260246000fd5b6000600282049050600182168061216c57607f821691505b60208210810361217f5761217e612125565b5b50919050565b600082825260208201905092915050565b7f556e617574686f72697a65640000000000000000000000000000000000000000600082015250565b60006121cc600c83612185565b91506121d782612196565b602082019050919050565b600060208201905081810360008301526121fb816121bf565b9050919050565b7f496e76616c696400000000000000000000000000000000000000000000000000600082015250565b6000612238600783612185565b915061224382612202565b602082019050919050565b600060208201905081810360008301526122678161222b565b9050919050565b7f496e76616c696420686173680000000000000000000000000000000000000000600082015250565b60006122a4600c83612185565b91506122af8261226e565b602082019050919050565b600060208201905081810360008301526122d381612297565b9050919050565b7f616c6c6f77536572766572000000000000000000000000000000000000000000600082015250565b6000612310600b83612185565b915061231b826122da565b602082019050919050565b6000602082019050818103600083015261233f81612303565b9050919050565b600081905092915050565b82818337600083830152505050565b600061236c8385612346565b9350612379838584612351565b82840190509392505050565b6000612392828486612360565b91508190509392505050565b600082905092915050565b7f4e487b7100000000000000000000000000000000000000000000000000000000600052604160045260246000fd5b60008190508160005260206000209050919050565b60006020601f8301049050919050565b600082821b905092915050565b60006008830261243a7fffffffffffffffffffffffffffffffffffffffffffffffffffffffffffffffff826123fd565b61244486836123fd565b95508019841693508086168417925050509392505050565b6000819050919050565b6000819050919050565b600061248b6124866124818461245c565b612466565b61245c565b9050919050565b6000819050919050565b6124a583612470565b6124b96124b182612492565b84845461240a565b825550505050565b600090565b6124ce6124c1565b6124d981848461249c565b505050565b5b818110156124fd576124f26000826124c6565b6001810190506124df565b5050565b601f82111561254257612513816123d8565b61251c846123ed565b8101602085101561252b578190505b61253f612537856123ed565b8301826124de565b50505b505050565b600082821c905092915050565b600061256560001984600802612547565b1980831691505092915050565b600061257e8383612554565b9150826002028217905092915050565b612598838361239e565b67ffffffffffffffff8111156125b1576125b06123a9565b5b6125bb8254612154565b6125c6828285612501565b6000601f8311600181146125f557600084156125e3578287013590505b6125ed8582612572565b865550612655565b601f198416612603866123d8565b60005b8281101561262b57848901358255600182019150602085019450602081019050612606565b868310156126485784890135612644601f891682612554565b8355505b6001600288020188555050505b50505050505050565b7f4369640000000000000000000000000000000000000000000000000000000000600082015250565b6000612694600383612185565b915061269f8261265e565b602082019050919050565b600060208201905081810360008301526126c381612687565b9050919050565b7f6d73672e73656e646572206d75737420626520636f6e7472616374206f776e6560008201527f7200000000000000000000000000000000000000000000000000000000000000602082015250565b6000612726602183612185565b9150612731826126ca565b604082019050919050565b6000602082019050818103600083015261275581612719565b9050919050565b7f496e76616c696420616464726573730000000000000000000000000000000000600082015250565b6000612792600f83612185565b915061279d8261275c565b602082019050919050565b600060208201905081810360008301526127c181612785565b9050919050565b7f4e487b7100000000000000000000000000000000000000000000000000000000600052602160045260246000fd5b61280081611c3e565b82525050565b600081519050919050565b600082825260208201905092915050565b600061282d82612806565b6128378185612811565b9350612847818560208601611d9f565b61285081611dc9565b840191505092915050565b600060408201905061287060008301856127f7565b81810360208301526128828184612822565b90509392505050565b600081905092915050565b60006128a182612806565b6128ab818561288b565b93506128bb818560208601611d9f565b80840191505092915050565b60006128d38284612896565b915081905092915050565b6000815190506128ed81611c48565b92915050565b60006020828403121561290957612908611c34565b5b6000612917848285016128de565b91505092915050565b600060ff82169050919050565b61293681612920565b82525050565b600060808201905061295160008301876127f7565b61295e602083018661292d565b61296b60408301856127f7565b61297860608301846127f7565b9594505050505056fea2646970667358221220a30603ef1211a63ddd0e61ec8df8b1488e6060329546288b34f39778d636e74b64736f6c63430008100033",
  "immutableReferences": {},
  "source": "// SPDX-License-Identifier: MIT\npragma solidity ^0.8.16;\n\nimport \"../node_modules/@openzeppelin/contracts/utils/cryptography/SignatureChecker.sol\";\n\ncontract Resolver {\n    /* ========== DATA STRUCTURES ========== */\n\n    struct Config {\n        string cid;\n        bool allowServer;\n        address owner;\n    }\n\n    /* ========== STATE VARIABLES ========== */\n\n    address private owner;\n    address private serverSigner;\n    mapping(bytes32 => Config) private resolvers;\n    mapping(bytes32 => bytes32) private secondaryResolvers;\n\n    /* ========== MODIFIERS ========== */\n\n    modifier onlyAuthorized(bytes32 idHash) {\n        require(bytes(resolvers[idHash].cid).length != 0, \"Unauthorized\");\n        if (!resolvers[idHash].allowServer) {\n            require(msg.sender == resolvers[idHash].owner, \"Unauthorized\");\n        } else {\n            require(\n                msg.sender == resolvers[idHash].owner ||\n                    msg.sender == serverSigner,\n                \"Unauthorized\"\n            );\n        }\n        _;\n    }\n\n    modifier validateCid(bytes32 hash, bytes memory signature) {\n        require(\n            SignatureChecker.isValidSignatureNow(msg.sender, hash, signature),\n            \"Invalid\"\n        );\n        _;\n    }\n\n    /* ========== EVENTS ========== */\n\n    event ResolverCreateEvent(bytes32 indexed hash);\n    event ResolverUpdateEvent(bytes32 indexed hash, string updateType);\n    event ResolverDeleteEvent(bytes32 indexed hash);\n\n    event SecondaryResolverCreateEvent(bytes32 indexed hash);\n    event SecondaryResolverDeleteEvent(bytes32 indexed hash);\n\n    /* ========== CONSTRUCTOR ========== */\n\n    constructor(address _serverSigner) {\n        owner = msg.sender;\n        serverSigner = _serverSigner;\n    }\n\n    function resolve(bytes32 idHash)\n        external\n        view\n        returns (Config memory resolver)\n    {\n        bytes32 secondaryMappingHash = secondaryResolvers[idHash];\n        if (secondaryMappingHash == bytes4(0x0)) {\n            return resolvers[idHash];\n        } else {\n            return resolvers[secondaryMappingHash];\n        }\n    }\n\n    /* ========== MUTATIVE FUNCTIONS ========== */\n\n    function createResolver(\n        bytes32 idHash,\n        string calldata cid,\n        bytes calldata signature,\n        bool allowServer\n    ) external validateCid(keccak256(abi.encodePacked(cid)), signature) {\n        require(idHash != bytes4(0x0), \"Invalid hash\");\n        require(bytes(resolvers[idHash].cid).length == 0, \"Invalid hash\");\n        Config storage config = resolvers[idHash];\n        config.cid = cid;\n        config.allowServer = allowServer;\n        if (msg.sender != serverSigner) {\n            config.owner = msg.sender;\n        }\n        emit ResolverCreateEvent(idHash);\n    }\n\n    function updateResolverCid(\n        bytes32 idHash,\n        string calldata cid,\n        bytes calldata signature\n    )\n        external\n        onlyAuthorized(idHash)\n        validateCid(keccak256(abi.encodePacked(cid)), signature)\n        returns (bool success)\n    {\n        resolvers[idHash].cid = cid;\n        emit ResolverUpdateEvent(idHash, \"Cid\");\n        return true;\n    }\n\n    function updateResolverAllowServer(bytes32 idHash, bool allowServer)\n        external\n        onlyAuthorized(idHash)\n        returns (bool success)\n    {\n        if (\n            !allowServer &&\n            resolvers[idHash].owner == address(0x0) &&\n            msg.sender != serverSigner\n        ) {\n            resolvers[idHash].owner = msg.sender;\n        }\n        resolvers[idHash].allowServer = allowServer;\n        emit ResolverUpdateEvent(idHash, \"allowServer\");\n        return true;\n    }\n\n    function deleteResolver(bytes32 idHash)\n        external\n        onlyAuthorized(idHash)\n        returns (bool success)\n    {\n        delete resolvers[idHash];\n        emit ResolverDeleteEvent(idHash);\n        return true;\n    }\n\n    function createSecondaryResolver(\n        bytes32 idHash,\n        bytes32 primaryResolverHash\n    ) external onlyAuthorized(primaryResolverHash) {\n        require(idHash != bytes4(0x0), \"Invalid hash\");\n        require(secondaryResolvers[idHash] == bytes4(0x0), \"Invalid\");\n        secondaryResolvers[idHash] = primaryResolverHash;\n        emit SecondaryResolverCreateEvent(idHash);\n    }\n\n    function deleteSecondaryResolver(bytes32 idHash)\n        external\n        onlyAuthorized(secondaryResolvers[idHash])\n        returns (bool success)\n    {\n        require(secondaryResolvers[idHash] != bytes4(0x0), \"Invalid\");\n        delete secondaryResolvers[idHash];\n        emit SecondaryResolverDeleteEvent(idHash);\n        return true;\n    }\n\n    /* ========== INTERNAL FUNCTIONS ========== */\n\n    function changeServerSigner(address _newServerSigner) external {\n        require(msg.sender == owner, \"msg.sender must be contract owner\");\n        require(_newServerSigner != address(0x0), \"Invalid address\");\n        serverSigner = _newServerSigner;\n    }\n}\n",
  "sourcePath": "/Users/joshuablew/Work/wallettree/contracts/Resolver.sol",
  "compiler": {
    "name": "solc",
    "version": "0.8.16+commit.07a7930e.Emscripten.clang"
  },
  "schemaVersion": "3.4.9",
  "updatedAt": "2023-02-21T18:09:32.158Z",
  "devdoc": {
    "kind": "dev",
    "methods": {},
    "version": 1
  },
  "userdoc": {
    "kind": "user",
    "methods": {},
    "version": 1
  }
}