{
  "contractName": "Resolver",
  "abi": [
    {
      "inputs": [
        {
          "internalType": "address",
          "name": "_serverSigner",
          "type": "address"
        }
      ],
      "stateMutability": "nonpayable",
      "type": "constructor"
    },
    {
      "anonymous": false,
      "inputs": [
        {
          "indexed": true,
          "internalType": "bytes32",
          "name": "hash",
          "type": "bytes32"
        }
      ],
      "name": "ResolverCreateEvent",
      "type": "event"
    },
    {
      "anonymous": false,
      "inputs": [
        {
          "indexed": true,
          "internalType": "bytes32",
          "name": "hash",
          "type": "bytes32"
        }
      ],
      "name": "ResolverDeleteEvent",
      "type": "event"
    },
    {
      "anonymous": false,
      "inputs": [
        {
          "indexed": true,
          "internalType": "bytes32",
          "name": "hash",
          "type": "bytes32"
        },
        {
          "indexed": false,
          "internalType": "string",
          "name": "updateType",
          "type": "string"
        }
      ],
      "name": "ResolverUpdateEvent",
      "type": "event"
    },
    {
      "anonymous": false,
      "inputs": [
        {
          "indexed": true,
          "internalType": "bytes32",
          "name": "hash",
          "type": "bytes32"
        }
      ],
      "name": "SecondaryResolverCreateEvent",
      "type": "event"
    },
    {
      "anonymous": false,
      "inputs": [
        {
          "indexed": true,
          "internalType": "bytes32",
          "name": "hash",
          "type": "bytes32"
        }
      ],
      "name": "SecondaryResolverDeleteEvent",
      "type": "event"
    },
    {
      "inputs": [
        {
          "internalType": "bytes32",
          "name": "userHash",
          "type": "bytes32"
        },
        {
          "internalType": "bytes32",
          "name": "contentHash",
          "type": "bytes32"
        },
        {
          "internalType": "bool",
          "name": "serverAccess",
          "type": "bool"
        }
      ],
      "name": "createResolver",
      "outputs": [],
      "stateMutability": "nonpayable",
      "type": "function"
    },
    {
      "inputs": [
        {
          "internalType": "bytes32",
          "name": "userHash",
          "type": "bytes32"
        },
        {
          "internalType": "bytes32",
          "name": "newContentHash",
          "type": "bytes32"
        }
      ],
      "name": "updateResolverContentHash",
      "outputs": [
        {
          "internalType": "bool",
          "name": "success",
          "type": "bool"
        }
      ],
      "stateMutability": "nonpayable",
      "type": "function"
    },
    {
      "inputs": [
        {
          "internalType": "bytes32",
          "name": "userHash",
          "type": "bytes32"
        },
        {
          "internalType": "bool",
          "name": "newServerAccess",
          "type": "bool"
        }
      ],
      "name": "updateResolverServerAccess",
      "outputs": [
        {
          "internalType": "bool",
          "name": "success",
          "type": "bool"
        }
      ],
      "stateMutability": "nonpayable",
      "type": "function"
    },
    {
      "inputs": [
        {
          "internalType": "bytes32",
          "name": "userHash",
          "type": "bytes32"
        }
      ],
      "name": "deleteResolver",
      "outputs": [
        {
          "internalType": "bool",
          "name": "success",
          "type": "bool"
        }
      ],
      "stateMutability": "nonpayable",
      "type": "function"
    },
    {
      "inputs": [
        {
          "internalType": "bytes32",
          "name": "userHash",
          "type": "bytes32"
        }
      ],
      "name": "getContentHash",
      "outputs": [
        {
          "internalType": "bytes32",
          "name": "contentHash",
          "type": "bytes32"
        }
      ],
      "stateMutability": "view",
      "type": "function"
    },
    {
      "inputs": [
        {
          "internalType": "bytes32",
          "name": "userHash",
          "type": "bytes32"
        },
        {
          "internalType": "bytes32",
          "name": "primaryResolverHash",
          "type": "bytes32"
        }
      ],
      "name": "createSecondaryResolver",
      "outputs": [],
      "stateMutability": "nonpayable",
      "type": "function"
    },
    {
      "inputs": [
        {
          "internalType": "bytes32",
          "name": "userHash",
          "type": "bytes32"
        }
      ],
      "name": "deleteSecondaryResolver",
      "outputs": [
        {
          "internalType": "bool",
          "name": "success",
          "type": "bool"
        }
      ],
      "stateMutability": "nonpayable",
      "type": "function"
    },
    {
      "inputs": [
        {
          "internalType": "address",
          "name": "_newServerSigner",
          "type": "address"
        }
      ],
      "name": "changeServerSigner",
      "outputs": [],
      "stateMutability": "nonpayable",
      "type": "function"
    }
  ],
  "bytecode": "0x60806040523480156200001157600080fd5b50604051620018ff380380620018ff833981810160405281019062000037919062000129565b336000806101000a81548173ffffffffffffffffffffffffffffffffffffffff021916908373ffffffffffffffffffffffffffffffffffffffff16021790555080600160006101000a81548173ffffffffffffffffffffffffffffffffffffffff021916908373ffffffffffffffffffffffffffffffffffffffff160217905550506200015b565b600080fd5b600073ffffffffffffffffffffffffffffffffffffffff82169050919050565b6000620000f182620000c4565b9050919050565b6200010381620000e4565b81146200010f57600080fd5b50565b6000815190506200012381620000f8565b92915050565b600060208284031215620001425762000141620000bf565b5b6000620001528482850162000112565b91505092915050565b611794806200016b6000396000f3fe608060405234801561001057600080fd5b50600436106100885760003560e01c8063611ab9211161005b578063611ab92114610139578063783762e0146101555780639cc77a6614610171578063fbf4f90d146101a157610088565b806303c7738f1461008d5780632f87e243146100bd57806338150249146100ed57806351577ea914610109575b600080fd5b6100a760048036038101906100a2919061132c565b6101d1565b6040516100b4919061137b565b60405180910390f35b6100d760048036038101906100d29190611396565b61057b565b6040516100e4919061137b565b60405180910390f35b610107600480360381019061010291906113c3565b6107f2565b005b610123600480360381019061011e9190611396565b610a7f565b6040516101309190611412565b60405180910390f35b610153600480360381019061014e919061148b565b610b01565b005b61016f600480360381019061016a91906114b8565b610c0c565b005b61018b60048036038101906101869190611396565b610d72565b604051610198919061137b565b60405180910390f35b6101bb60048036038101906101b691906113c3565b611018565b6040516101c8919061137b565b60405180910390f35b600082600060e01b7bffffffffffffffffffffffffffffffffffffffffffffffffffffffff191660026000838152602001908152602001600020600001540361021957600080fd5b6002600082815260200190815260200160002060010160009054906101000a900460ff166102ea576002600082815260200190815260200160002060010160019054906101000a900473ffffffffffffffffffffffffffffffffffffffff1673ffffffffffffffffffffffffffffffffffffffff163373ffffffffffffffffffffffffffffffffffffffff16146102e5576040517f08c379a00000000000000000000000000000000000000000000000000000000081526004016102dc90611568565b60405180910390fd5b6103e7565b6002600082815260200190815260200160002060010160019054906101000a900473ffffffffffffffffffffffffffffffffffffffff1673ffffffffffffffffffffffffffffffffffffffff163373ffffffffffffffffffffffffffffffffffffffff1614806103a75750600160009054906101000a900473ffffffffffffffffffffffffffffffffffffffff1673ffffffffffffffffffffffffffffffffffffffff163373ffffffffffffffffffffffffffffffffffffffff16145b6103e6576040517f08c379a00000000000000000000000000000000000000000000000000000000081526004016103dd906115d4565b60405180910390fd5b5b821580156104575750600073ffffffffffffffffffffffffffffffffffffffff166002600086815260200190815260200160002060010160019054906101000a900473ffffffffffffffffffffffffffffffffffffffff1673ffffffffffffffffffffffffffffffffffffffff16145b80156104b15750600160009054906101000a900473ffffffffffffffffffffffffffffffffffffffff1673ffffffffffffffffffffffffffffffffffffffff163373ffffffffffffffffffffffffffffffffffffffff1614155b1561050c57336002600086815260200190815260200160002060010160016101000a81548173ffffffffffffffffffffffffffffffffffffffff021916908373ffffffffffffffffffffffffffffffffffffffff1602179055505b826002600086815260200190815260200160002060010160006101000a81548160ff021916908315150217905550837f5e2c12e2a480d0c3bcc27fc263a56550bf4c49819e3c62cd67c617775f8d78db60405161056890611640565b60405180910390a2600191505092915050565b60006003600083815260200190815260200160002054600060e01b7bffffffffffffffffffffffffffffffffffffffffffffffffffffffff19166002600083815260200190815260200160002060000154036105d657600080fd5b6002600082815260200190815260200160002060010160009054906101000a900460ff166106a7576002600082815260200190815260200160002060010160019054906101000a900473ffffffffffffffffffffffffffffffffffffffff1673ffffffffffffffffffffffffffffffffffffffff163373ffffffffffffffffffffffffffffffffffffffff16146106a2576040517f08c379a000000000000000000000000000000000000000000000000000000000815260040161069990611568565b60405180910390fd5b6107a4565b6002600082815260200190815260200160002060010160019054906101000a900473ffffffffffffffffffffffffffffffffffffffff1673ffffffffffffffffffffffffffffffffffffffff163373ffffffffffffffffffffffffffffffffffffffff1614806107645750600160009054906101000a900473ffffffffffffffffffffffffffffffffffffffff1673ffffffffffffffffffffffffffffffffffffffff163373ffffffffffffffffffffffffffffffffffffffff16145b6107a3576040517f08c379a000000000000000000000000000000000000000000000000000000000815260040161079a906115d4565b60405180910390fd5b5b6003600084815260200190815260200160002060009055827f8941cd292398e3ee88d189814a24ac2ec2bf676e73149ecd108335a456339b3f60405160405180910390a26001915050919050565b80600060e01b7bffffffffffffffffffffffffffffffffffffffffffffffffffffffff191660026000838152602001908152602001600020600001540361083857600080fd5b6002600082815260200190815260200160002060010160009054906101000a900460ff16610909576002600082815260200190815260200160002060010160019054906101000a900473ffffffffffffffffffffffffffffffffffffffff1673ffffffffffffffffffffffffffffffffffffffff163373ffffffffffffffffffffffffffffffffffffffff1614610904576040517f08c379a00000000000000000000000000000000000000000000000000000000081526004016108fb90611568565b60405180910390fd5b610a06565b6002600082815260200190815260200160002060010160019054906101000a900473ffffffffffffffffffffffffffffffffffffffff1673ffffffffffffffffffffffffffffffffffffffff163373ffffffffffffffffffffffffffffffffffffffff1614806109c65750600160009054906101000a900473ffffffffffffffffffffffffffffffffffffffff1673ffffffffffffffffffffffffffffffffffffffff163373ffffffffffffffffffffffffffffffffffffffff16145b610a05576040517f08c379a00000000000000000000000000000000000000000000000000000000081526004016109fc906115d4565b60405180910390fd5b5b600060e01b7bffffffffffffffffffffffffffffffffffffffffffffffffffffffff19168303610a3557600080fd5b816003600085815260200190815260200160002081905550827f6c2d6fa498f74dfe95ea9fbc1493bf603dcc0ee5d261e05599c4c2ca54fb78d660405160405180910390a2505050565b60008060036000848152602001908152602001600020549050600060e01b7bffffffffffffffffffffffffffffffffffffffffffffffffffffffff19168103610ae1576002600084815260200190815260200160002060000154915050610afc565b60026000828152602001908152602001600020600001549150505b919050565b60008054906101000a900473ffffffffffffffffffffffffffffffffffffffff1673ffffffffffffffffffffffffffffffffffffffff163373ffffffffffffffffffffffffffffffffffffffff1614610b8f576040517f08c379a0000000000000000000000000000000000000000000000000000000008152600401610b86906116d2565b60405180910390fd5b600073ffffffffffffffffffffffffffffffffffffffff168173ffffffffffffffffffffffffffffffffffffffff1603610bc857600080fd5b80600160006101000a81548173ffffffffffffffffffffffffffffffffffffffff021916908373ffffffffffffffffffffffffffffffffffffffff16021790555050565b600060e01b7bffffffffffffffffffffffffffffffffffffffffffffffffffffffff19168303610c3b57600080fd5b600060e01b7bffffffffffffffffffffffffffffffffffffffffffffffffffffffff19168203610c6a57600080fd5b6000600260008581526020019081526020016000209050828160000181905550818160010160006101000a81548160ff021916908315150217905550600160009054906101000a900473ffffffffffffffffffffffffffffffffffffffff1673ffffffffffffffffffffffffffffffffffffffff163373ffffffffffffffffffffffffffffffffffffffff1614610d3f57338160010160016101000a81548173ffffffffffffffffffffffffffffffffffffffff021916908373ffffffffffffffffffffffffffffffffffffffff1602179055505b837f147f6e062549071a98dc97031ae1dcfe00f003c45d227c179ade9e52b62df63d60405160405180910390a250505050565b600081600060e01b7bffffffffffffffffffffffffffffffffffffffffffffffffffffffff1916600260008381526020019081526020016000206000015403610dba57600080fd5b6002600082815260200190815260200160002060010160009054906101000a900460ff16610e8b576002600082815260200190815260200160002060010160019054906101000a900473ffffffffffffffffffffffffffffffffffffffff1673ffffffffffffffffffffffffffffffffffffffff163373ffffffffffffffffffffffffffffffffffffffff1614610e86576040517f08c379a0000000000000000000000000000000000000000000000000000000008152600401610e7d90611568565b60405180910390fd5b610f88565b6002600082815260200190815260200160002060010160019054906101000a900473ffffffffffffffffffffffffffffffffffffffff1673ffffffffffffffffffffffffffffffffffffffff163373ffffffffffffffffffffffffffffffffffffffff161480610f485750600160009054906101000a900473ffffffffffffffffffffffffffffffffffffffff1673ffffffffffffffffffffffffffffffffffffffff163373ffffffffffffffffffffffffffffffffffffffff16145b610f87576040517f08c379a0000000000000000000000000000000000000000000000000000000008152600401610f7e906115d4565b60405180910390fd5b5b600260008481526020019081526020016000206000808201600090556001820160006101000a81549060ff02191690556001820160016101000a81549073ffffffffffffffffffffffffffffffffffffffff02191690555050827fb5ef9bfb7f8d9879f431e41551758202e8c18d08bada7bec57d1720e1249c46760405160405180910390a26001915050919050565b600082600060e01b7bffffffffffffffffffffffffffffffffffffffffffffffffffffffff191660026000838152602001908152602001600020600001540361106057600080fd5b6002600082815260200190815260200160002060010160009054906101000a900460ff16611131576002600082815260200190815260200160002060010160019054906101000a900473ffffffffffffffffffffffffffffffffffffffff1673ffffffffffffffffffffffffffffffffffffffff163373ffffffffffffffffffffffffffffffffffffffff161461112c576040517f08c379a000000000000000000000000000000000000000000000000000000000815260040161112390611568565b60405180910390fd5b61122e565b6002600082815260200190815260200160002060010160019054906101000a900473ffffffffffffffffffffffffffffffffffffffff1673ffffffffffffffffffffffffffffffffffffffff163373ffffffffffffffffffffffffffffffffffffffff1614806111ee5750600160009054906101000a900473ffffffffffffffffffffffffffffffffffffffff1673ffffffffffffffffffffffffffffffffffffffff163373ffffffffffffffffffffffffffffffffffffffff16145b61122d576040517f08c379a0000000000000000000000000000000000000000000000000000000008152600401611224906115d4565b60405180910390fd5b5b600060e01b7bffffffffffffffffffffffffffffffffffffffffffffffffffffffff1916830361125d57600080fd5b826002600086815260200190815260200160002060000181905550837f5e2c12e2a480d0c3bcc27fc263a56550bf4c49819e3c62cd67c617775f8d78db6040516112a69061173e565b60405180910390a2600191505092915050565b600080fd5b6000819050919050565b6112d1816112be565b81146112dc57600080fd5b50565b6000813590506112ee816112c8565b92915050565b60008115159050919050565b611309816112f4565b811461131457600080fd5b50565b60008135905061132681611300565b92915050565b60008060408385031215611343576113426112b9565b5b6000611351858286016112df565b925050602061136285828601611317565b9150509250929050565b611375816112f4565b82525050565b6000602082019050611390600083018461136c565b92915050565b6000602082840312156113ac576113ab6112b9565b5b60006113ba848285016112df565b91505092915050565b600080604083850312156113da576113d96112b9565b5b60006113e8858286016112df565b92505060206113f9858286016112df565b9150509250929050565b61140c816112be565b82525050565b60006020820190506114276000830184611403565b92915050565b600073ffffffffffffffffffffffffffffffffffffffff82169050919050565b60006114588261142d565b9050919050565b6114688161144d565b811461147357600080fd5b50565b6000813590506114858161145f565b92915050565b6000602082840312156114a1576114a06112b9565b5b60006114af84828501611476565b91505092915050565b6000806000606084860312156114d1576114d06112b9565b5b60006114df868287016112df565b93505060206114f0868287016112df565b925050604061150186828701611317565b9150509250925092565b600082825260208201905092915050565b7f43616c6c6572206d757374206265206f776e6572000000000000000000000000600082015250565b600061155260148361150b565b915061155d8261151c565b602082019050919050565b6000602082019050818103600083015261158181611545565b9050919050565b7f43616c6c6572206d757374206265206f776e6572206f72207365727665720000600082015250565b60006115be601e8361150b565b91506115c982611588565b602082019050919050565b600060208201905081810360008301526115ed816115b1565b9050919050565b7f7365727665724163636573730000000000000000000000000000000000000000600082015250565b600061162a600c8361150b565b9150611635826115f4565b602082019050919050565b600060208201905081810360008301526116598161161d565b9050919050565b7f6d73672e73656e646572206d75737420626520636f6e7472616374206f776e6560008201527f7200000000000000000000000000000000000000000000000000000000000000602082015250565b60006116bc60218361150b565b91506116c782611660565b604082019050919050565b600060208201905081810360008301526116eb816116af565b9050919050565b7f636f6e74656e7448617368000000000000000000000000000000000000000000600082015250565b6000611728600b8361150b565b9150611733826116f2565b602082019050919050565b600060208201905081810360008301526117578161171b565b905091905056fea264697066735822122082ec251155d9cb197acd40c348990d28dfb7a71124da926941e08e868227c6ed64736f6c63430008100033",
  "immutableReferences": {},
  "source": "// SPDX-License-Identifier: MIT\npragma solidity ^0.8.16;\n\ncontract Resolver {\n    /* ========== DATA STRUCTURES ========== */\n\n    struct Config {\n        bytes32 contentHash; // SHA-256 hash of the file on IPFS\n        bool serverAccess; // Permission for server access set by user\n        address owner; // Wallet used to create profile (optional)\n    }\n\n    /* ========== STATE VARIABLES ========== */\n\n    address private owner;\n    address private serverSigner;\n    mapping(bytes32 => Config) private resolvers; // hash of primary PII => Config\n    mapping(bytes32 => bytes32) private secondaryResolvers; // hash of a secondary PII => hash of primary PII\n\n    /* ========== MODIFIERS ========== */\n\n    modifier onlyAuthorized(bytes32 hash) {\n        require(resolvers[hash].contentHash != bytes4(0x0)); // hash must exist in mapping\n        if (!resolvers[hash].serverAccess) {\n            require(\n                msg.sender == resolvers[hash].owner,\n                \"Caller must be owner\"\n            );\n        } else {\n            require(\n                msg.sender == resolvers[hash].owner ||\n                    msg.sender == serverSigner,\n                \"Caller must be owner or server\"\n            );\n        }\n        _;\n    }\n\n    /* ========== EVENTS ========== */\n\n    event ResolverCreateEvent(bytes32 indexed hash);\n    event ResolverUpdateEvent(bytes32 indexed hash, string updateType);\n    event ResolverDeleteEvent(bytes32 indexed hash);\n\n    event SecondaryResolverCreateEvent(bytes32 indexed hash);\n    event SecondaryResolverDeleteEvent(bytes32 indexed hash);\n\n    /* ========== CONSTRUCTOR ========== */\n\n    constructor(address _serverSigner) {\n        owner = msg.sender;\n        serverSigner = _serverSigner;\n    }\n\n    /* ========== MUTATIVE FUNCTIONS ========== */\n\n    // PRIMARY\n    function createResolver(\n        bytes32 userHash,\n        bytes32 contentHash,\n        bool serverAccess\n    ) external {\n        require(userHash != bytes4(0x0));\n        require(contentHash != bytes4(0x0));\n        Config storage config = resolvers[userHash];\n        config.contentHash = contentHash;\n        config.serverAccess = serverAccess;\n        if (msg.sender != serverSigner) {\n            config.owner = msg.sender;\n        }\n        emit ResolverCreateEvent(userHash);\n    }\n\n    function updateResolverContentHash(bytes32 userHash, bytes32 newContentHash)\n        external\n        onlyAuthorized(userHash)\n        returns (bool success)\n    {\n        require(newContentHash != bytes4(0x0));\n        resolvers[userHash].contentHash = newContentHash;\n        emit ResolverUpdateEvent(userHash, \"contentHash\");\n        return true;\n    }\n\n    function updateResolverServerAccess(bytes32 userHash, bool newServerAccess)\n        external\n        onlyAuthorized(userHash)\n        returns (bool success)\n    {\n        if (\n            !newServerAccess &&\n            resolvers[userHash].owner == address(0x0) &&\n            msg.sender != serverSigner\n        ) {\n            resolvers[userHash].owner = msg.sender;\n        }\n        resolvers[userHash].serverAccess = newServerAccess;\n        emit ResolverUpdateEvent(userHash, \"serverAccess\");\n        return true;\n    }\n\n    function deleteResolver(bytes32 userHash)\n        external\n        onlyAuthorized(userHash)\n        returns (bool success)\n    {\n        delete resolvers[userHash];\n        emit ResolverDeleteEvent(userHash);\n        return true;\n    }\n\n    function getContentHash(bytes32 userHash)\n        external\n        view\n        returns (bytes32 contentHash)\n    {\n        bytes32 secondaryMappingHash = secondaryResolvers[userHash];\n        if (secondaryMappingHash == bytes4(0x0)) {\n            return resolvers[userHash].contentHash;\n        } else {\n            return resolvers[secondaryMappingHash].contentHash;\n        }\n    }\n\n    // SECONDARY\n    function createSecondaryResolver(\n        bytes32 userHash,\n        bytes32 primaryResolverHash\n    ) external onlyAuthorized(primaryResolverHash) {\n        require(userHash != bytes4(0x0));\n        secondaryResolvers[userHash] = primaryResolverHash;\n        emit SecondaryResolverCreateEvent(userHash);\n    }\n\n    function deleteSecondaryResolver(bytes32 userHash)\n        external\n        onlyAuthorized(secondaryResolvers[userHash])\n        returns (bool success)\n    {\n        delete secondaryResolvers[userHash];\n        emit SecondaryResolverDeleteEvent(userHash);\n        return true;\n    }\n\n    /* ========== INTERNAL FUNCTIONS ========== */\n\n    function changeServerSigner(address _newServerSigner) external {\n        require(msg.sender == owner, \"msg.sender must be contract owner\");\n        require(_newServerSigner != address(0x0));\n        serverSigner = _newServerSigner;\n    }\n}\n",
  "sourcePath": "/Users/joshuablew/Work/wallettree/contracts/Resolver.sol",
  "compiler": {
    "name": "solc",
    "version": "0.8.16+commit.07a7930e.Emscripten.clang"
  },
  "schemaVersion": "3.4.9",
  "updatedAt": "2023-02-09T01:40:36.303Z",
  "devdoc": {
    "kind": "dev",
    "methods": {},
    "version": 1
  },
  "userdoc": {
    "kind": "user",
    "methods": {},
    "version": 1
  }
}