{
  "contractName": "Resolver",
  "abi": [
    {
      "inputs": [
        {
          "internalType": "address",
          "name": "_serverSigner",
          "type": "address"
        }
      ],
      "stateMutability": "nonpayable",
      "type": "constructor"
    },
    {
      "inputs": [
        {
          "internalType": "bytes32",
          "name": "idHash",
          "type": "bytes32"
        }
      ],
      "name": "resolve",
      "outputs": [
        {
          "components": [
            {
              "internalType": "string",
              "name": "cid",
              "type": "string"
            },
            {
              "internalType": "bool",
              "name": "allowServer",
              "type": "bool"
            },
            {
              "internalType": "address",
              "name": "owner",
              "type": "address"
            },
            {
              "internalType": "bool",
              "name": "isValue",
              "type": "bool"
            }
          ],
          "internalType": "struct Resolver.Config",
          "name": "resolver",
          "type": "tuple"
        }
      ],
      "stateMutability": "view",
      "type": "function"
    },
    {
      "inputs": [
        {
          "internalType": "bytes32",
          "name": "idHash",
          "type": "bytes32"
        },
        {
          "internalType": "string",
          "name": "cid",
          "type": "string"
        },
        {
          "internalType": "bytes",
          "name": "signature",
          "type": "bytes"
        },
        {
          "internalType": "bool",
          "name": "allowServer",
          "type": "bool"
        }
      ],
      "name": "createResolver",
      "outputs": [],
      "stateMutability": "nonpayable",
      "type": "function"
    },
    {
      "inputs": [
        {
          "internalType": "bytes32",
          "name": "idHash",
          "type": "bytes32"
        },
        {
          "internalType": "string",
          "name": "cid",
          "type": "string"
        },
        {
          "internalType": "bytes",
          "name": "signature",
          "type": "bytes"
        }
      ],
      "name": "updateResolverCid",
      "outputs": [
        {
          "internalType": "bool",
          "name": "success",
          "type": "bool"
        }
      ],
      "stateMutability": "nonpayable",
      "type": "function"
    },
    {
      "inputs": [
        {
          "internalType": "bytes32",
          "name": "idHash",
          "type": "bytes32"
        },
        {
          "internalType": "bool",
          "name": "allowServer",
          "type": "bool"
        },
        {
          "internalType": "address",
          "name": "newOwner",
          "type": "address"
        }
      ],
      "name": "updateResolverAllowServer",
      "outputs": [
        {
          "internalType": "bool",
          "name": "success",
          "type": "bool"
        }
      ],
      "stateMutability": "nonpayable",
      "type": "function"
    },
    {
      "inputs": [
        {
          "internalType": "bytes32",
          "name": "idHash",
          "type": "bytes32"
        }
      ],
      "name": "deleteResolver",
      "outputs": [
        {
          "internalType": "bool",
          "name": "success",
          "type": "bool"
        }
      ],
      "stateMutability": "nonpayable",
      "type": "function"
    },
    {
      "inputs": [
        {
          "internalType": "bytes32",
          "name": "idHash",
          "type": "bytes32"
        },
        {
          "internalType": "bytes32",
          "name": "primaryResolverHash",
          "type": "bytes32"
        }
      ],
      "name": "createSecondaryResolver",
      "outputs": [],
      "stateMutability": "nonpayable",
      "type": "function"
    },
    {
      "inputs": [
        {
          "internalType": "bytes32",
          "name": "idHash",
          "type": "bytes32"
        }
      ],
      "name": "deleteSecondaryResolver",
      "outputs": [
        {
          "internalType": "bool",
          "name": "success",
          "type": "bool"
        }
      ],
      "stateMutability": "nonpayable",
      "type": "function"
    },
    {
      "inputs": [
        {
          "internalType": "address",
          "name": "_newServerSigner",
          "type": "address"
        }
      ],
      "name": "changeServerSigner",
      "outputs": [],
      "stateMutability": "nonpayable",
      "type": "function"
    }
  ],
  "bytecode": "0x60806040523480156200001157600080fd5b5060405162002c3b38038062002c3b833981810160405281019062000037919062000129565b336000806101000a81548173ffffffffffffffffffffffffffffffffffffffff021916908373ffffffffffffffffffffffffffffffffffffffff16021790555080600160006101000a81548173ffffffffffffffffffffffffffffffffffffffff021916908373ffffffffffffffffffffffffffffffffffffffff160217905550506200015b565b600080fd5b600073ffffffffffffffffffffffffffffffffffffffff82169050919050565b6000620000f182620000c4565b9050919050565b6200010381620000e4565b81146200010f57600080fd5b50565b6000815190506200012381620000f8565b92915050565b600060208284031215620001425762000141620000bf565b5b6000620001528482850162000112565b91505092915050565b612ad0806200016b6000396000f3fe608060405234801561001057600080fd5b50600436106100885760003560e01c8063611ab9211161005b578063611ab921146101395780639cc77a6614610155578063a11439a114610185578063ec612b76146101b557610088565b80632f87e2431461008d57806338150249146100bd5780635c23bdf5146100d95780635f0acb1e14610109575b600080fd5b6100a760048036038101906100a29190611c84565b6101d1565b6040516100b49190611ccc565b60405180910390f35b6100d760048036038101906100d29190611ce7565b6104b8565b005b6100f360048036038101906100ee9190611c84565b6107eb565b6040516101009190611e6a565b60405180910390f35b610123600480360381019061011e9190611f47565b610abe565b6040516101309190611ccc565b60405180910390f35b610153600480360381019061014e9190612008565b610e46565b005b61016f600480360381019061016a9190611c84565b610f87565b60405161017c9190611ccc565b60405180910390f35b61019f600480360381019061019a9190612061565b611241565b6040516101ac9190611ccc565b60405180910390f35b6101cf60048036038101906101ca91906120b4565b6115d2565b005b60006003600083815260200190815260200160002054600115156002600083815260200190815260200160002060010160159054906101000a900460ff16151514610251576040517f08c379a0000000000000000000000000000000000000000000000000000000008152600401610248906121b8565b60405180910390fd5b6002600082815260200190815260200160002060010160009054906101000a900460ff16610322576002600082815260200190815260200160002060010160019054906101000a900473ffffffffffffffffffffffffffffffffffffffff1673ffffffffffffffffffffffffffffffffffffffff163373ffffffffffffffffffffffffffffffffffffffff161461031d576040517f08c379a000000000000000000000000000000000000000000000000000000000815260040161031490612224565b60405180910390fd5b61041f565b6002600082815260200190815260200160002060010160019054906101000a900473ffffffffffffffffffffffffffffffffffffffff1673ffffffffffffffffffffffffffffffffffffffff163373ffffffffffffffffffffffffffffffffffffffff1614806103df5750600160009054906101000a900473ffffffffffffffffffffffffffffffffffffffff1673ffffffffffffffffffffffffffffffffffffffff163373ffffffffffffffffffffffffffffffffffffffff16145b61041e576040517f08c379a000000000000000000000000000000000000000000000000000000000815260040161041590612224565b60405180910390fd5b5b600060e01b7bffffffffffffffffffffffffffffffffffffffffffffffffffffffff1916600360008581526020019081526020016000205403610497576040517f08c379a000000000000000000000000000000000000000000000000000000000815260040161048e90612290565b60405180910390fd5b60036000848152602001908152602001600020600090556001915050919050565b80600115156002600083815260200190815260200160002060010160159054906101000a900460ff16151514610523576040517f08c379a000000000000000000000000000000000000000000000000000000000815260040161051a906121b8565b60405180910390fd5b6002600082815260200190815260200160002060010160009054906101000a900460ff166105f4576002600082815260200190815260200160002060010160019054906101000a900473ffffffffffffffffffffffffffffffffffffffff1673ffffffffffffffffffffffffffffffffffffffff163373ffffffffffffffffffffffffffffffffffffffff16146105ef576040517f08c379a00000000000000000000000000000000000000000000000000000000081526004016105e690612224565b60405180910390fd5b6106f1565b6002600082815260200190815260200160002060010160019054906101000a900473ffffffffffffffffffffffffffffffffffffffff1673ffffffffffffffffffffffffffffffffffffffff163373ffffffffffffffffffffffffffffffffffffffff1614806106b15750600160009054906101000a900473ffffffffffffffffffffffffffffffffffffffff1673ffffffffffffffffffffffffffffffffffffffff163373ffffffffffffffffffffffffffffffffffffffff16145b6106f0576040517f08c379a00000000000000000000000000000000000000000000000000000000081526004016106e790612224565b60405180910390fd5b5b600060e01b7bffffffffffffffffffffffffffffffffffffffffffffffffffffffff19168303610756576040517f08c379a000000000000000000000000000000000000000000000000000000000815260040161074d906122fc565b60405180910390fd5b600060e01b7bffffffffffffffffffffffffffffffffffffffffffffffffffffffff19166003600085815260200190815260200160002054146107ce576040517f08c379a00000000000000000000000000000000000000000000000000000000081526004016107c590612290565b60405180910390fd5b816003600085815260200190815260200160002081905550505050565b6107f3611ba5565b600060036000848152602001908152602001600020549050600060e01b7bffffffffffffffffffffffffffffffffffffffffffffffffffffffff1916810361097957600260008481526020019081526020016000206040518060800160405290816000820180546108639061234b565b80601f016020809104026020016040519081016040528092919081815260200182805461088f9061234b565b80156108dc5780601f106108b1576101008083540402835291602001916108dc565b820191906000526020600020905b8154815290600101906020018083116108bf57829003601f168201915b505050505081526020016001820160009054906101000a900460ff161515151581526020016001820160019054906101000a900473ffffffffffffffffffffffffffffffffffffffff1673ffffffffffffffffffffffffffffffffffffffff1673ffffffffffffffffffffffffffffffffffffffff1681526020016001820160159054906101000a900460ff161515151581525050915050610ab9565b600260008281526020019081526020016000206040518060800160405290816000820180546109a79061234b565b80601f01602080910402602001604051908101604052809291908181526020018280546109d39061234b565b8015610a205780601f106109f557610100808354040283529160200191610a20565b820191906000526020600020905b815481529060010190602001808311610a0357829003601f168201915b505050505081526020016001820160009054906101000a900460ff161515151581526020016001820160019054906101000a900473ffffffffffffffffffffffffffffffffffffffff1673ffffffffffffffffffffffffffffffffffffffff1673ffffffffffffffffffffffffffffffffffffffff1681526020016001820160159054906101000a900460ff1615151515815250509150505b919050565b600085600115156002600083815260200190815260200160002060010160159054906101000a900460ff16151514610b2b576040517f08c379a0000000000000000000000000000000000000000000000000000000008152600401610b22906121b8565b60405180910390fd5b6002600082815260200190815260200160002060010160009054906101000a900460ff16610bfc576002600082815260200190815260200160002060010160019054906101000a900473ffffffffffffffffffffffffffffffffffffffff1673ffffffffffffffffffffffffffffffffffffffff163373ffffffffffffffffffffffffffffffffffffffff1614610bf7576040517f08c379a0000000000000000000000000000000000000000000000000000000008152600401610bee90612224565b60405180910390fd5b610cf9565b6002600082815260200190815260200160002060010160019054906101000a900473ffffffffffffffffffffffffffffffffffffffff1673ffffffffffffffffffffffffffffffffffffffff163373ffffffffffffffffffffffffffffffffffffffff161480610cb95750600160009054906101000a900473ffffffffffffffffffffffffffffffffffffffff1673ffffffffffffffffffffffffffffffffffffffff163373ffffffffffffffffffffffffffffffffffffffff16145b610cf8576040517f08c379a0000000000000000000000000000000000000000000000000000000008152600401610cef90612224565b60405180910390fd5b5b858585858080601f016020809104026020016040519081016040528093929190818152602001838380828437600081840152601f19601f82011690508083019250505050505050600160009054906101000a900473ffffffffffffffffffffffffffffffffffffffff1673ffffffffffffffffffffffffffffffffffffffff16610db3610dad8585604051602001610d929291906123bb565b604051602081830303815290604052805190602001206118b5565b836118e5565b73ffffffffffffffffffffffffffffffffffffffff1614610e09576040517f08c379a0000000000000000000000000000000000000000000000000000000008152600401610e0090612290565b60405180910390fd5b6000600260008c815260200190815260200160002090508989826000019182610e339291906125c4565b5060019550505050505095945050505050565b60008054906101000a900473ffffffffffffffffffffffffffffffffffffffff1673ffffffffffffffffffffffffffffffffffffffff163373ffffffffffffffffffffffffffffffffffffffff1614610ed4576040517f08c379a0000000000000000000000000000000000000000000000000000000008152600401610ecb90612706565b60405180910390fd5b600073ffffffffffffffffffffffffffffffffffffffff168173ffffffffffffffffffffffffffffffffffffffff1603610f43576040517f08c379a0000000000000000000000000000000000000000000000000000000008152600401610f3a90612772565b60405180910390fd5b80600160006101000a81548173ffffffffffffffffffffffffffffffffffffffff021916908373ffffffffffffffffffffffffffffffffffffffff16021790555050565b600081600115156002600083815260200190815260200160002060010160159054906101000a900460ff16151514610ff4576040517f08c379a0000000000000000000000000000000000000000000000000000000008152600401610feb906121b8565b60405180910390fd5b6002600082815260200190815260200160002060010160009054906101000a900460ff166110c5576002600082815260200190815260200160002060010160019054906101000a900473ffffffffffffffffffffffffffffffffffffffff1673ffffffffffffffffffffffffffffffffffffffff163373ffffffffffffffffffffffffffffffffffffffff16146110c0576040517f08c379a00000000000000000000000000000000000000000000000000000000081526004016110b790612224565b60405180910390fd5b6111c2565b6002600082815260200190815260200160002060010160019054906101000a900473ffffffffffffffffffffffffffffffffffffffff1673ffffffffffffffffffffffffffffffffffffffff163373ffffffffffffffffffffffffffffffffffffffff1614806111825750600160009054906101000a900473ffffffffffffffffffffffffffffffffffffffff1673ffffffffffffffffffffffffffffffffffffffff163373ffffffffffffffffffffffffffffffffffffffff16145b6111c1576040517f08c379a00000000000000000000000000000000000000000000000000000000081526004016111b890612224565b60405180910390fd5b5b60026000848152602001908152602001600020600080820160006111e69190611be7565b6001820160006101000a81549060ff02191690556001820160016101000a81549073ffffffffffffffffffffffffffffffffffffffff02191690556001820160156101000a81549060ff021916905550506001915050919050565b600083600115156002600083815260200190815260200160002060010160159054906101000a900460ff161515146112ae576040517f08c379a00000000000000000000000000000000000000000000000000000000081526004016112a5906121b8565b60405180910390fd5b6002600082815260200190815260200160002060010160009054906101000a900460ff1661137f576002600082815260200190815260200160002060010160019054906101000a900473ffffffffffffffffffffffffffffffffffffffff1673ffffffffffffffffffffffffffffffffffffffff163373ffffffffffffffffffffffffffffffffffffffff161461137a576040517f08c379a000000000000000000000000000000000000000000000000000000000815260040161137190612224565b60405180910390fd5b61147c565b6002600082815260200190815260200160002060010160019054906101000a900473ffffffffffffffffffffffffffffffffffffffff1673ffffffffffffffffffffffffffffffffffffffff163373ffffffffffffffffffffffffffffffffffffffff16148061143c5750600160009054906101000a900473ffffffffffffffffffffffffffffffffffffffff1673ffffffffffffffffffffffffffffffffffffffff163373ffffffffffffffffffffffffffffffffffffffff16145b61147b576040517f08c379a000000000000000000000000000000000000000000000000000000000815260040161147290612224565b60405180910390fd5b5b6000600260008781526020019081526020016000209050841580156114f15750600073ffffffffffffffffffffffffffffffffffffffff168160010160019054906101000a900473ffffffffffffffffffffffffffffffffffffffff1673ffffffffffffffffffffffffffffffffffffffff16145b156115a957600073ffffffffffffffffffffffffffffffffffffffff168473ffffffffffffffffffffffffffffffffffffffff1603611565576040517f08c379a000000000000000000000000000000000000000000000000000000000815260040161155c906127de565b60405180910390fd5b838160010160016101000a81548173ffffffffffffffffffffffffffffffffffffffff021916908373ffffffffffffffffffffffffffffffffffffffff1602179055505b848160010160006101000a81548160ff0219169083151502179055506001925050509392505050565b848484848080601f016020809104026020016040519081016040528093929190818152602001838380828437600081840152601f19601f82011690508083019250505050505050600160009054906101000a900473ffffffffffffffffffffffffffffffffffffffff1673ffffffffffffffffffffffffffffffffffffffff1661168c611686858560405160200161166b9291906123bb565b604051602081830303815290604052805190602001206118b5565b836118e5565b73ffffffffffffffffffffffffffffffffffffffff16146116e2576040517f08c379a00000000000000000000000000000000000000000000000000000000081526004016116d990612290565b60405180910390fd5b600060e01b7bffffffffffffffffffffffffffffffffffffffffffffffffffffffff19168903611747576040517f08c379a000000000000000000000000000000000000000000000000000000000815260040161173e906122fc565b60405180910390fd5b6000600260008b8152602001908152602001600020600001805461176a9061234b565b9050146117ac576040517f08c379a00000000000000000000000000000000000000000000000000000000081526004016117a3906122fc565b60405180910390fd5b6000600260008b8152602001908152602001600020905088888260000191826117d69291906125c4565b50848160010160006101000a81548160ff021916908315150217905550600160009054906101000a900473ffffffffffffffffffffffffffffffffffffffff1673ffffffffffffffffffffffffffffffffffffffff163373ffffffffffffffffffffffffffffffffffffffff161461188c57338160010160016101000a81548173ffffffffffffffffffffffffffffffffffffffff021916908373ffffffffffffffffffffffffffffffffffffffff1602179055505b60018160010160156101000a81548160ff02191690831515021790555050505050505050505050565b6000816040516020016118c8919061286b565b604051602081830303815290604052805190602001209050919050565b60008060006118f4858561190c565b915091506119018161195d565b819250505092915050565b600080604183510361194d5760008060006020860151925060408601519150606086015160001a905061194187828585611ac3565b94509450505050611956565b60006002915091505b9250929050565b6000600481111561197157611970612891565b5b81600481111561198457611983612891565b5b0315611ac0576001600481111561199e5761199d612891565b5b8160048111156119b1576119b0612891565b5b036119f1576040517f08c379a00000000000000000000000000000000000000000000000000000000081526004016119e89061290c565b60405180910390fd5b60026004811115611a0557611a04612891565b5b816004811115611a1857611a17612891565b5b03611a58576040517f08c379a0000000000000000000000000000000000000000000000000000000008152600401611a4f90612978565b60405180910390fd5b60036004811115611a6c57611a6b612891565b5b816004811115611a7f57611a7e612891565b5b03611abf576040517f08c379a0000000000000000000000000000000000000000000000000000000008152600401611ab690612a0a565b60405180910390fd5b5b50565b6000807f7fffffffffffffffffffffffffffffff5d576e7357a4501ddfe92f46681b20a08360001c1115611afe576000600391509150611b9c565b600060018787878760405160008152602001604052604051611b239493929190612a55565b6020604051602081039080840390855afa158015611b45573d6000803e3d6000fd5b505050602060405103519050600073ffffffffffffffffffffffffffffffffffffffff168173ffffffffffffffffffffffffffffffffffffffff1603611b9357600060019250925050611b9c565b80600092509250505b94509492505050565b604051806080016040528060608152602001600015158152602001600073ffffffffffffffffffffffffffffffffffffffff1681526020016000151581525090565b508054611bf39061234b565b6000825580601f10611c055750611c24565b601f016020900490600052602060002090810190611c239190611c27565b5b50565b5b80821115611c40576000816000905550600101611c28565b5090565b600080fd5b600080fd5b6000819050919050565b611c6181611c4e565b8114611c6c57600080fd5b50565b600081359050611c7e81611c58565b92915050565b600060208284031215611c9a57611c99611c44565b5b6000611ca884828501611c6f565b91505092915050565b60008115159050919050565b611cc681611cb1565b82525050565b6000602082019050611ce16000830184611cbd565b92915050565b60008060408385031215611cfe57611cfd611c44565b5b6000611d0c85828601611c6f565b9250506020611d1d85828601611c6f565b9150509250929050565b600081519050919050565b600082825260208201905092915050565b60005b83811015611d61578082015181840152602081019050611d46565b60008484015250505050565b6000601f19601f8301169050919050565b6000611d8982611d27565b611d938185611d32565b9350611da3818560208601611d43565b611dac81611d6d565b840191505092915050565b611dc081611cb1565b82525050565b600073ffffffffffffffffffffffffffffffffffffffff82169050919050565b6000611df182611dc6565b9050919050565b611e0181611de6565b82525050565b60006080830160008301518482036000860152611e248282611d7e565b9150506020830151611e396020860182611db7565b506040830151611e4c6040860182611df8565b506060830151611e5f6060860182611db7565b508091505092915050565b60006020820190508181036000830152611e848184611e07565b905092915050565b600080fd5b600080fd5b600080fd5b60008083601f840112611eb157611eb0611e8c565b5b8235905067ffffffffffffffff811115611ece57611ecd611e91565b5b602083019150836001820283011115611eea57611ee9611e96565b5b9250929050565b60008083601f840112611f0757611f06611e8c565b5b8235905067ffffffffffffffff811115611f2457611f23611e91565b5b602083019150836001820283011115611f4057611f3f611e96565b5b9250929050565b600080600080600060608688031215611f6357611f62611c44565b5b6000611f7188828901611c6f565b955050602086013567ffffffffffffffff811115611f9257611f91611c49565b5b611f9e88828901611e9b565b9450945050604086013567ffffffffffffffff811115611fc157611fc0611c49565b5b611fcd88828901611ef1565b92509250509295509295909350565b611fe581611de6565b8114611ff057600080fd5b50565b60008135905061200281611fdc565b92915050565b60006020828403121561201e5761201d611c44565b5b600061202c84828501611ff3565b91505092915050565b61203e81611cb1565b811461204957600080fd5b50565b60008135905061205b81612035565b92915050565b60008060006060848603121561207a57612079611c44565b5b600061208886828701611c6f565b93505060206120998682870161204c565b92505060406120aa86828701611ff3565b9150509250925092565b600080600080600080608087890312156120d1576120d0611c44565b5b60006120df89828a01611c6f565b965050602087013567ffffffffffffffff811115612100576120ff611c49565b5b61210c89828a01611e9b565b9550955050604087013567ffffffffffffffff81111561212f5761212e611c49565b5b61213b89828a01611ef1565b9350935050606061214e89828a0161204c565b9150509295509295509295565b600082825260208201905092915050565b7f496e76616c6964207265736f6c76657200000000000000000000000000000000600082015250565b60006121a260108361215b565b91506121ad8261216c565b602082019050919050565b600060208201905081810360008301526121d181612195565b9050919050565b7f556e617574686f72697a65640000000000000000000000000000000000000000600082015250565b600061220e600c8361215b565b9150612219826121d8565b602082019050919050565b6000602082019050818103600083015261223d81612201565b9050919050565b7f496e76616c696400000000000000000000000000000000000000000000000000600082015250565b600061227a60078361215b565b915061228582612244565b602082019050919050565b600060208201905081810360008301526122a98161226d565b9050919050565b7f496e76616c696420686173680000000000000000000000000000000000000000600082015250565b60006122e6600c8361215b565b91506122f1826122b0565b602082019050919050565b60006020820190508181036000830152612315816122d9565b9050919050565b7f4e487b7100000000000000000000000000000000000000000000000000000000600052602260045260246000fd5b6000600282049050600182168061236357607f821691505b6020821081036123765761237561231c565b5b50919050565b600081905092915050565b82818337600083830152505050565b60006123a2838561237c565b93506123af838584612387565b82840190509392505050565b60006123c8828486612396565b91508190509392505050565b600082905092915050565b7f4e487b7100000000000000000000000000000000000000000000000000000000600052604160045260246000fd5b60008190508160005260206000209050919050565b60006020601f8301049050919050565b600082821b905092915050565b6000600883026124707fffffffffffffffffffffffffffffffffffffffffffffffffffffffffffffffff82612433565b61247a8683612433565b95508019841693508086168417925050509392505050565b6000819050919050565b6000819050919050565b60006124c16124bc6124b784612492565b61249c565b612492565b9050919050565b6000819050919050565b6124db836124a6565b6124ef6124e7826124c8565b848454612440565b825550505050565b600090565b6125046124f7565b61250f8184846124d2565b505050565b5b81811015612533576125286000826124fc565b600181019050612515565b5050565b601f821115612578576125498161240e565b61255284612423565b81016020851015612561578190505b61257561256d85612423565b830182612514565b50505b505050565b600082821c905092915050565b600061259b6000198460080261257d565b1980831691505092915050565b60006125b4838361258a565b9150826002028217905092915050565b6125ce83836123d4565b67ffffffffffffffff8111156125e7576125e66123df565b5b6125f1825461234b565b6125fc828285612537565b6000601f83116001811461262b5760008415612619578287013590505b61262385826125a8565b86555061268b565b601f1984166126398661240e565b60005b828110156126615784890135825560018201915060208501945060208101905061263c565b8683101561267e578489013561267a601f89168261258a565b8355505b6001600288020188555050505b50505050505050565b7f6d73672e73656e646572206d75737420626520636f6e7472616374206f776e6560008201527f7200000000000000000000000000000000000000000000000000000000000000602082015250565b60006126f060218361215b565b91506126fb82612694565b604082019050919050565b6000602082019050818103600083015261271f816126e3565b9050919050565b7f496e76616c696420616464726573730000000000000000000000000000000000600082015250565b600061275c600f8361215b565b915061276782612726565b602082019050919050565b6000602082019050818103600083015261278b8161274f565b9050919050565b7f4f776e6572206d7573742062652076616c696420616464726573730000000000600082015250565b60006127c8601b8361215b565b91506127d382612792565b602082019050919050565b600060208201905081810360008301526127f7816127bb565b9050919050565b7f19457468657265756d205369676e6564204d6573736167653a0a333200000000600082015250565b6000612834601c8361237c565b915061283f826127fe565b601c82019050919050565b6000819050919050565b61286561286082611c4e565b61284a565b82525050565b600061287682612827565b91506128828284612854565b60208201915081905092915050565b7f4e487b7100000000000000000000000000000000000000000000000000000000600052602160045260246000fd5b7f45434453413a20696e76616c6964207369676e61747572650000000000000000600082015250565b60006128f660188361215b565b9150612901826128c0565b602082019050919050565b60006020820190508181036000830152612925816128e9565b9050919050565b7f45434453413a20696e76616c6964207369676e6174757265206c656e67746800600082015250565b6000612962601f8361215b565b915061296d8261292c565b602082019050919050565b6000602082019050818103600083015261299181612955565b9050919050565b7f45434453413a20696e76616c6964207369676e6174757265202773272076616c60008201527f7565000000000000000000000000000000000000000000000000000000000000602082015250565b60006129f460228361215b565b91506129ff82612998565b604082019050919050565b60006020820190508181036000830152612a23816129e7565b9050919050565b612a3381611c4e565b82525050565b600060ff82169050919050565b612a4f81612a39565b82525050565b6000608082019050612a6a6000830187612a2a565b612a776020830186612a46565b612a846040830185612a2a565b612a916060830184612a2a565b9594505050505056fea26469706673582212207166186ed400549f89f3790794a3d13bef93f654c116577e725a4279cfb6b6be64736f6c63430008100033",
  "immutableReferences": {},
  "source": "// SPDX-License-Identifier: MIT\npragma solidity ^0.8.16;\n\nimport \"@openzeppelin/contracts/utils/cryptography/ECDSA.sol\";\n\ncontract Resolver {\n    /* ========== DATA STRUCTURES ========== */\n\n    struct Config {\n        string cid;\n        bool allowServer;\n        address owner;\n        bool isValue;\n    }\n\n    /* ========== STATE VARIABLES ========== */\n\n    address private owner;\n    address private serverSigner;\n    mapping(bytes32 => Config) private resolvers;\n    mapping(bytes32 => bytes32) private secondaryResolvers;\n\n    /* ========== MODIFIERS ========== */\n\n    modifier onlyAuthorized(bytes32 idHash) {\n        require(resolvers[idHash].isValue == true, \"Invalid resolver\");\n        if (!resolvers[idHash].allowServer) {\n            require(msg.sender == resolvers[idHash].owner, \"Unauthorized\");\n        } else {\n            require(\n                msg.sender == resolvers[idHash].owner ||\n                    msg.sender == serverSigner,\n                \"Unauthorized\"\n            );\n        }\n        _;\n    }\n\n    modifier validateCid(string calldata cid, bytes memory signature) {\n        require(\n            ECDSA.recover(\n                ECDSA.toEthSignedMessageHash(keccak256(abi.encodePacked(cid))),\n                signature\n            ) == serverSigner,\n            \"Invalid\"\n        );\n        _;\n    }\n\n    /* ========== CONSTRUCTOR ========== */\n\n    constructor(address _serverSigner) {\n        owner = msg.sender;\n        serverSigner = _serverSigner;\n    }\n\n    function resolve(bytes32 idHash)\n        external\n        view\n        returns (Config memory resolver)\n    {\n        bytes32 secondaryMappingHash = secondaryResolvers[idHash];\n        if (secondaryMappingHash == bytes4(0x0)) {\n            return resolvers[idHash];\n        } else {\n            return resolvers[secondaryMappingHash];\n        }\n    }\n\n    /* ========== MUTATIVE FUNCTIONS ========== */\n\n    function createResolver(\n        bytes32 idHash,\n        string calldata cid,\n        bytes calldata signature,\n        bool allowServer\n    ) external validateCid(cid, signature) {\n        require(idHash != bytes4(0x0), \"Invalid hash\");\n        require(bytes(resolvers[idHash].cid).length == 0, \"Invalid hash\");\n        Config storage config = resolvers[idHash];\n        config.cid = cid;\n        config.allowServer = allowServer;\n        if (msg.sender != serverSigner) {\n            config.owner = msg.sender;\n        }\n        config.isValue = true;\n    }\n\n    function updateResolverCid(\n        bytes32 idHash,\n        string calldata cid,\n        bytes calldata signature\n    )\n        external\n        onlyAuthorized(idHash)\n        validateCid(cid, signature)\n        returns (bool success)\n    {\n        Config storage resolver = resolvers[idHash];\n        resolver.cid = cid;\n        return true;\n    }\n\n    function updateResolverAllowServer(\n        bytes32 idHash,\n        bool allowServer,\n        address newOwner\n    ) external onlyAuthorized(idHash) returns (bool success) {\n        Config storage resolver = resolvers[idHash];\n        if (!allowServer && resolver.owner == address(0x0)) {\n            require(newOwner != address(0x0), \"Owner must be valid address\");\n            resolver.owner = newOwner;\n        }\n        resolver.allowServer = allowServer;\n        return true;\n    }\n\n    function deleteResolver(bytes32 idHash)\n        external\n        onlyAuthorized(idHash)\n        returns (bool success)\n    {\n        delete resolvers[idHash];\n        return true;\n    }\n\n    function createSecondaryResolver(\n        bytes32 idHash,\n        bytes32 primaryResolverHash\n    ) external onlyAuthorized(primaryResolverHash) {\n        require(idHash != bytes4(0x0), \"Invalid hash\");\n        require(secondaryResolvers[idHash] == bytes4(0x0), \"Invalid\");\n        secondaryResolvers[idHash] = primaryResolverHash;\n    }\n\n    function deleteSecondaryResolver(bytes32 idHash)\n        external\n        onlyAuthorized(secondaryResolvers[idHash])\n        returns (bool success)\n    {\n        require(secondaryResolvers[idHash] != bytes4(0x0), \"Invalid\");\n        delete secondaryResolvers[idHash];\n        return true;\n    }\n\n    /* ========== INTERNAL FUNCTIONS ========== */\n\n    function changeServerSigner(address _newServerSigner) external {\n        require(msg.sender == owner, \"msg.sender must be contract owner\");\n        require(_newServerSigner != address(0x0), \"Invalid address\");\n        serverSigner = _newServerSigner;\n    }\n}\n",
  "sourcePath": "/Users/joshuablew/Work/wallettree/contracts/Resolver.sol",
  "compiler": {
    "name": "solc",
    "version": "0.8.16+commit.07a7930e.Emscripten.clang"
  },
  "schemaVersion": "3.4.9",
  "updatedAt": "2023-02-27T01:58:35.583Z",
  "devdoc": {
    "kind": "dev",
    "methods": {},
    "version": 1
  },
  "userdoc": {
    "kind": "user",
    "methods": {},
    "version": 1
  }
}