{
  "contractName": "Resolver",
  "abi": [
    {
      "inputs": [
        {
          "internalType": "address",
          "name": "_serverSigner",
          "type": "address"
        }
      ],
      "stateMutability": "nonpayable",
      "type": "constructor"
    },
    {
      "anonymous": false,
      "inputs": [
        {
          "indexed": true,
          "internalType": "bytes32",
          "name": "hash",
          "type": "bytes32"
        }
      ],
      "name": "ResolverCreateEvent",
      "type": "event"
    },
    {
      "anonymous": false,
      "inputs": [
        {
          "indexed": true,
          "internalType": "bytes32",
          "name": "hash",
          "type": "bytes32"
        }
      ],
      "name": "ResolverDeleteEvent",
      "type": "event"
    },
    {
      "anonymous": false,
      "inputs": [
        {
          "indexed": true,
          "internalType": "bytes32",
          "name": "hash",
          "type": "bytes32"
        },
        {
          "indexed": false,
          "internalType": "string",
          "name": "updateType",
          "type": "string"
        }
      ],
      "name": "ResolverUpdateEvent",
      "type": "event"
    },
    {
      "anonymous": false,
      "inputs": [
        {
          "indexed": true,
          "internalType": "bytes32",
          "name": "hash",
          "type": "bytes32"
        }
      ],
      "name": "SecondaryResolverCreateEvent",
      "type": "event"
    },
    {
      "anonymous": false,
      "inputs": [
        {
          "indexed": true,
          "internalType": "bytes32",
          "name": "hash",
          "type": "bytes32"
        }
      ],
      "name": "SecondaryResolverDeleteEvent",
      "type": "event"
    },
    {
      "inputs": [
        {
          "internalType": "bytes32",
          "name": "idHash",
          "type": "bytes32"
        }
      ],
      "name": "resolve",
      "outputs": [
        {
          "components": [
            {
              "internalType": "string",
              "name": "cid",
              "type": "string"
            },
            {
              "internalType": "bool",
              "name": "allowServer",
              "type": "bool"
            },
            {
              "internalType": "address",
              "name": "owner",
              "type": "address"
            },
            {
              "internalType": "bool",
              "name": "isValue",
              "type": "bool"
            }
          ],
          "internalType": "struct Resolver.Config",
          "name": "resolver",
          "type": "tuple"
        }
      ],
      "stateMutability": "view",
      "type": "function"
    },
    {
      "inputs": [
        {
          "internalType": "bytes32",
          "name": "idHash",
          "type": "bytes32"
        },
        {
          "internalType": "string",
          "name": "cid",
          "type": "string"
        },
        {
          "internalType": "bytes",
          "name": "signature",
          "type": "bytes"
        },
        {
          "internalType": "bool",
          "name": "allowServer",
          "type": "bool"
        }
      ],
      "name": "createResolver",
      "outputs": [],
      "stateMutability": "nonpayable",
      "type": "function"
    },
    {
      "inputs": [
        {
          "internalType": "bytes32",
          "name": "idHash",
          "type": "bytes32"
        },
        {
          "internalType": "string",
          "name": "cid",
          "type": "string"
        },
        {
          "internalType": "bytes",
          "name": "signature",
          "type": "bytes"
        }
      ],
      "name": "updateResolverCid",
      "outputs": [
        {
          "internalType": "bool",
          "name": "success",
          "type": "bool"
        }
      ],
      "stateMutability": "nonpayable",
      "type": "function"
    },
    {
      "inputs": [
        {
          "internalType": "bytes32",
          "name": "idHash",
          "type": "bytes32"
        },
        {
          "internalType": "bool",
          "name": "allowServer",
          "type": "bool"
        }
      ],
      "name": "updateResolverAllowServer",
      "outputs": [
        {
          "internalType": "bool",
          "name": "success",
          "type": "bool"
        }
      ],
      "stateMutability": "nonpayable",
      "type": "function"
    },
    {
      "inputs": [
        {
          "internalType": "bytes32",
          "name": "idHash",
          "type": "bytes32"
        }
      ],
      "name": "deleteResolver",
      "outputs": [
        {
          "internalType": "bool",
          "name": "success",
          "type": "bool"
        }
      ],
      "stateMutability": "nonpayable",
      "type": "function"
    },
    {
      "inputs": [
        {
          "internalType": "bytes32",
          "name": "idHash",
          "type": "bytes32"
        },
        {
          "internalType": "bytes32",
          "name": "primaryResolverHash",
          "type": "bytes32"
        }
      ],
      "name": "createSecondaryResolver",
      "outputs": [],
      "stateMutability": "nonpayable",
      "type": "function"
    },
    {
      "inputs": [
        {
          "internalType": "bytes32",
          "name": "idHash",
          "type": "bytes32"
        }
      ],
      "name": "deleteSecondaryResolver",
      "outputs": [
        {
          "internalType": "bool",
          "name": "success",
          "type": "bool"
        }
      ],
      "stateMutability": "nonpayable",
      "type": "function"
    },
    {
      "inputs": [
        {
          "internalType": "address",
          "name": "_newServerSigner",
          "type": "address"
        }
      ],
      "name": "changeServerSigner",
      "outputs": [],
      "stateMutability": "nonpayable",
      "type": "function"
    }
  ],
  "bytecode": "0x60806040523480156200001157600080fd5b5060405162002d4a38038062002d4a833981810160405281019062000037919062000129565b336000806101000a81548173ffffffffffffffffffffffffffffffffffffffff021916908373ffffffffffffffffffffffffffffffffffffffff16021790555080600160006101000a81548173ffffffffffffffffffffffffffffffffffffffff021916908373ffffffffffffffffffffffffffffffffffffffff160217905550506200015b565b600080fd5b600073ffffffffffffffffffffffffffffffffffffffff82169050919050565b6000620000f182620000c4565b9050919050565b6200010381620000e4565b81146200010f57600080fd5b50565b6000815190506200012381620000f8565b92915050565b600060208284031215620001425762000141620000bf565b5b6000620001528482850162000112565b91505092915050565b612bdf806200016b6000396000f3fe608060405234801561001057600080fd5b50600436106100885760003560e01c80635f0acb1e1161005b5780635f0acb1e14610139578063611ab921146101695780639cc77a6614610185578063ec612b76146101b557610088565b80632f87e2431461008d57806338150249146100bd5780635230b282146100d95780635c23bdf514610109575b600080fd5b6100a760048036038101906100a29190611da6565b6101d1565b6040516100b49190611dee565b60405180910390f35b6100d760048036038101906100d29190611e09565b6104e5565b005b6100f360048036038101906100ee9190611e75565b610845565b6040516101009190611dee565b60405180910390f35b610123600480360381019061011e9190611da6565b610c14565b6040516101309190611ff8565b60405180910390f35b610153600480360381019061014e91906120d5565b610ee7565b6040516101609190611dee565b60405180910390f35b610183600480360381019061017e9190612196565b61129f565b005b61019f600480360381019061019a9190611da6565b6113e0565b6040516101ac9190611dee565b60405180910390f35b6101cf60048036038101906101ca91906121c3565b6116c7565b005b60006003600083815260200190815260200160002054600115156002600083815260200190815260200160002060010160159054906101000a900460ff16151514610251576040517f08c379a0000000000000000000000000000000000000000000000000000000008152600401610248906122c7565b60405180910390fd5b6002600082815260200190815260200160002060010160009054906101000a900460ff16610322576002600082815260200190815260200160002060010160019054906101000a900473ffffffffffffffffffffffffffffffffffffffff1673ffffffffffffffffffffffffffffffffffffffff163373ffffffffffffffffffffffffffffffffffffffff161461031d576040517f08c379a0000000000000000000000000000000000000000000000000000000008152600401610314906122c7565b60405180910390fd5b61041f565b6002600082815260200190815260200160002060010160019054906101000a900473ffffffffffffffffffffffffffffffffffffffff1673ffffffffffffffffffffffffffffffffffffffff163373ffffffffffffffffffffffffffffffffffffffff1614806103df5750600160009054906101000a900473ffffffffffffffffffffffffffffffffffffffff1673ffffffffffffffffffffffffffffffffffffffff163373ffffffffffffffffffffffffffffffffffffffff16145b61041e576040517f08c379a0000000000000000000000000000000000000000000000000000000008152600401610415906122c7565b60405180910390fd5b5b600060e01b7bffffffffffffffffffffffffffffffffffffffffffffffffffffffff1916600360008581526020019081526020016000205403610497576040517f08c379a000000000000000000000000000000000000000000000000000000000815260040161048e90612333565b60405180910390fd5b6003600084815260200190815260200160002060009055827f8941cd292398e3ee88d189814a24ac2ec2bf676e73149ecd108335a456339b3f60405160405180910390a26001915050919050565b80600115156002600083815260200190815260200160002060010160159054906101000a900460ff16151514610550576040517f08c379a0000000000000000000000000000000000000000000000000000000008152600401610547906122c7565b60405180910390fd5b6002600082815260200190815260200160002060010160009054906101000a900460ff16610621576002600082815260200190815260200160002060010160019054906101000a900473ffffffffffffffffffffffffffffffffffffffff1673ffffffffffffffffffffffffffffffffffffffff163373ffffffffffffffffffffffffffffffffffffffff161461061c576040517f08c379a0000000000000000000000000000000000000000000000000000000008152600401610613906122c7565b60405180910390fd5b61071e565b6002600082815260200190815260200160002060010160019054906101000a900473ffffffffffffffffffffffffffffffffffffffff1673ffffffffffffffffffffffffffffffffffffffff163373ffffffffffffffffffffffffffffffffffffffff1614806106de5750600160009054906101000a900473ffffffffffffffffffffffffffffffffffffffff1673ffffffffffffffffffffffffffffffffffffffff163373ffffffffffffffffffffffffffffffffffffffff16145b61071d576040517f08c379a0000000000000000000000000000000000000000000000000000000008152600401610714906122c7565b60405180910390fd5b5b600060e01b7bffffffffffffffffffffffffffffffffffffffffffffffffffffffff19168303610783576040517f08c379a000000000000000000000000000000000000000000000000000000000815260040161077a9061239f565b60405180910390fd5b600060e01b7bffffffffffffffffffffffffffffffffffffffffffffffffffffffff19166003600085815260200190815260200160002054146107fb576040517f08c379a00000000000000000000000000000000000000000000000000000000081526004016107f290612333565b60405180910390fd5b816003600085815260200190815260200160002081905550827f6c2d6fa498f74dfe95ea9fbc1493bf603dcc0ee5d261e05599c4c2ca54fb78d660405160405180910390a2505050565b600082600115156002600083815260200190815260200160002060010160159054906101000a900460ff161515146108b2576040517f08c379a00000000000000000000000000000000000000000000000000000000081526004016108a9906122c7565b60405180910390fd5b6002600082815260200190815260200160002060010160009054906101000a900460ff16610983576002600082815260200190815260200160002060010160019054906101000a900473ffffffffffffffffffffffffffffffffffffffff1673ffffffffffffffffffffffffffffffffffffffff163373ffffffffffffffffffffffffffffffffffffffff161461097e576040517f08c379a0000000000000000000000000000000000000000000000000000000008152600401610975906122c7565b60405180910390fd5b610a80565b6002600082815260200190815260200160002060010160019054906101000a900473ffffffffffffffffffffffffffffffffffffffff1673ffffffffffffffffffffffffffffffffffffffff163373ffffffffffffffffffffffffffffffffffffffff161480610a405750600160009054906101000a900473ffffffffffffffffffffffffffffffffffffffff1673ffffffffffffffffffffffffffffffffffffffff163373ffffffffffffffffffffffffffffffffffffffff16145b610a7f576040517f08c379a0000000000000000000000000000000000000000000000000000000008152600401610a76906122c7565b60405180910390fd5b5b82158015610af05750600073ffffffffffffffffffffffffffffffffffffffff166002600086815260200190815260200160002060010160019054906101000a900473ffffffffffffffffffffffffffffffffffffffff1673ffffffffffffffffffffffffffffffffffffffff16145b8015610b4a5750600160009054906101000a900473ffffffffffffffffffffffffffffffffffffffff1673ffffffffffffffffffffffffffffffffffffffff163373ffffffffffffffffffffffffffffffffffffffff1614155b15610ba557336002600086815260200190815260200160002060010160016101000a81548173ffffffffffffffffffffffffffffffffffffffff021916908373ffffffffffffffffffffffffffffffffffffffff1602179055505b826002600086815260200190815260200160002060010160006101000a81548160ff021916908315150217905550837f5e2c12e2a480d0c3bcc27fc263a56550bf4c49819e3c62cd67c617775f8d78db604051610c019061240b565b60405180910390a2600191505092915050565b610c1c611cc7565b600060036000848152602001908152602001600020549050600060e01b7bffffffffffffffffffffffffffffffffffffffffffffffffffffffff19168103610da25760026000848152602001908152602001600020604051806080016040529081600082018054610c8c9061245a565b80601f0160208091040260200160405190810160405280929190818152602001828054610cb89061245a565b8015610d055780601f10610cda57610100808354040283529160200191610d05565b820191906000526020600020905b815481529060010190602001808311610ce857829003601f168201915b505050505081526020016001820160009054906101000a900460ff161515151581526020016001820160019054906101000a900473ffffffffffffffffffffffffffffffffffffffff1673ffffffffffffffffffffffffffffffffffffffff1673ffffffffffffffffffffffffffffffffffffffff1681526020016001820160159054906101000a900460ff161515151581525050915050610ee2565b60026000828152602001908152602001600020604051806080016040529081600082018054610dd09061245a565b80601f0160208091040260200160405190810160405280929190818152602001828054610dfc9061245a565b8015610e495780601f10610e1e57610100808354040283529160200191610e49565b820191906000526020600020905b815481529060010190602001808311610e2c57829003601f168201915b505050505081526020016001820160009054906101000a900460ff161515151581526020016001820160019054906101000a900473ffffffffffffffffffffffffffffffffffffffff1673ffffffffffffffffffffffffffffffffffffffff1673ffffffffffffffffffffffffffffffffffffffff1681526020016001820160159054906101000a900460ff1615151515815250509150505b919050565b600085600115156002600083815260200190815260200160002060010160159054906101000a900460ff16151514610f54576040517f08c379a0000000000000000000000000000000000000000000000000000000008152600401610f4b906122c7565b60405180910390fd5b6002600082815260200190815260200160002060010160009054906101000a900460ff16611025576002600082815260200190815260200160002060010160019054906101000a900473ffffffffffffffffffffffffffffffffffffffff1673ffffffffffffffffffffffffffffffffffffffff163373ffffffffffffffffffffffffffffffffffffffff1614611020576040517f08c379a0000000000000000000000000000000000000000000000000000000008152600401611017906122c7565b60405180910390fd5b611122565b6002600082815260200190815260200160002060010160019054906101000a900473ffffffffffffffffffffffffffffffffffffffff1673ffffffffffffffffffffffffffffffffffffffff163373ffffffffffffffffffffffffffffffffffffffff1614806110e25750600160009054906101000a900473ffffffffffffffffffffffffffffffffffffffff1673ffffffffffffffffffffffffffffffffffffffff163373ffffffffffffffffffffffffffffffffffffffff16145b611121576040517f08c379a0000000000000000000000000000000000000000000000000000000008152600401611118906122c7565b60405180910390fd5b5b858585858080601f016020809104026020016040519081016040528093929190818152602001838380828437600081840152601f19601f82011690508083019250505050505050600160009054906101000a900473ffffffffffffffffffffffffffffffffffffffff1673ffffffffffffffffffffffffffffffffffffffff166111dc6111d685856040516020016111bb9291906124ca565b604051602081830303815290604052805190602001206119d7565b83611a07565b73ffffffffffffffffffffffffffffffffffffffff1614611232576040517f08c379a000000000000000000000000000000000000000000000000000000000815260040161122990612333565b60405180910390fd5b8888600260008d815260200190815260200160002060000191826112579291906126d3565b50897f5e2c12e2a480d0c3bcc27fc263a56550bf4c49819e3c62cd67c617775f8d78db604051611286906127ef565b60405180910390a2600194505050505095945050505050565b60008054906101000a900473ffffffffffffffffffffffffffffffffffffffff1673ffffffffffffffffffffffffffffffffffffffff163373ffffffffffffffffffffffffffffffffffffffff161461132d576040517f08c379a000000000000000000000000000000000000000000000000000000000815260040161132490612881565b60405180910390fd5b600073ffffffffffffffffffffffffffffffffffffffff168173ffffffffffffffffffffffffffffffffffffffff160361139c576040517f08c379a0000000000000000000000000000000000000000000000000000000008152600401611393906128ed565b60405180910390fd5b80600160006101000a81548173ffffffffffffffffffffffffffffffffffffffff021916908373ffffffffffffffffffffffffffffffffffffffff16021790555050565b600081600115156002600083815260200190815260200160002060010160159054906101000a900460ff1615151461144d576040517f08c379a0000000000000000000000000000000000000000000000000000000008152600401611444906122c7565b60405180910390fd5b6002600082815260200190815260200160002060010160009054906101000a900460ff1661151e576002600082815260200190815260200160002060010160019054906101000a900473ffffffffffffffffffffffffffffffffffffffff1673ffffffffffffffffffffffffffffffffffffffff163373ffffffffffffffffffffffffffffffffffffffff1614611519576040517f08c379a0000000000000000000000000000000000000000000000000000000008152600401611510906122c7565b60405180910390fd5b61161b565b6002600082815260200190815260200160002060010160019054906101000a900473ffffffffffffffffffffffffffffffffffffffff1673ffffffffffffffffffffffffffffffffffffffff163373ffffffffffffffffffffffffffffffffffffffff1614806115db5750600160009054906101000a900473ffffffffffffffffffffffffffffffffffffffff1673ffffffffffffffffffffffffffffffffffffffff163373ffffffffffffffffffffffffffffffffffffffff16145b61161a576040517f08c379a0000000000000000000000000000000000000000000000000000000008152600401611611906122c7565b60405180910390fd5b5b600260008481526020019081526020016000206000808201600061163f9190611d09565b6001820160006101000a81549060ff02191690556001820160016101000a81549073ffffffffffffffffffffffffffffffffffffffff02191690556001820160156101000a81549060ff02191690555050827fb5ef9bfb7f8d9879f431e41551758202e8c18d08bada7bec57d1720e1249c46760405160405180910390a26001915050919050565b848484848080601f016020809104026020016040519081016040528093929190818152602001838380828437600081840152601f19601f82011690508083019250505050505050600160009054906101000a900473ffffffffffffffffffffffffffffffffffffffff1673ffffffffffffffffffffffffffffffffffffffff1661178161177b85856040516020016117609291906124ca565b604051602081830303815290604052805190602001206119d7565b83611a07565b73ffffffffffffffffffffffffffffffffffffffff16146117d7576040517f08c379a00000000000000000000000000000000000000000000000000000000081526004016117ce90612333565b60405180910390fd5b600060e01b7bffffffffffffffffffffffffffffffffffffffffffffffffffffffff1916890361183c576040517f08c379a00000000000000000000000000000000000000000000000000000000081526004016118339061239f565b60405180910390fd5b6000600260008b8152602001908152602001600020600001805461185f9061245a565b9050146118a1576040517f08c379a00000000000000000000000000000000000000000000000000000000081526004016118989061239f565b60405180910390fd5b6000600260008b8152602001908152602001600020905088888260000191826118cb9291906126d3565b50848160010160006101000a81548160ff021916908315150217905550600160009054906101000a900473ffffffffffffffffffffffffffffffffffffffff1673ffffffffffffffffffffffffffffffffffffffff163373ffffffffffffffffffffffffffffffffffffffff161461198157338160010160016101000a81548173ffffffffffffffffffffffffffffffffffffffff021916908373ffffffffffffffffffffffffffffffffffffffff1602179055505b60018160010160156101000a81548160ff021916908315150217905550897f147f6e062549071a98dc97031ae1dcfe00f003c45d227c179ade9e52b62df63d60405160405180910390a250505050505050505050565b6000816040516020016119ea919061297a565b604051602081830303815290604052805190602001209050919050565b6000806000611a168585611a2e565b91509150611a2381611a7f565b819250505092915050565b6000806041835103611a6f5760008060006020860151925060408601519150606086015160001a9050611a6387828585611be5565b94509450505050611a78565b60006002915091505b9250929050565b60006004811115611a9357611a926129a0565b5b816004811115611aa657611aa56129a0565b5b0315611be25760016004811115611ac057611abf6129a0565b5b816004811115611ad357611ad26129a0565b5b03611b13576040517f08c379a0000000000000000000000000000000000000000000000000000000008152600401611b0a90612a1b565b60405180910390fd5b60026004811115611b2757611b266129a0565b5b816004811115611b3a57611b396129a0565b5b03611b7a576040517f08c379a0000000000000000000000000000000000000000000000000000000008152600401611b7190612a87565b60405180910390fd5b60036004811115611b8e57611b8d6129a0565b5b816004811115611ba157611ba06129a0565b5b03611be1576040517f08c379a0000000000000000000000000000000000000000000000000000000008152600401611bd890612b19565b60405180910390fd5b5b50565b6000807f7fffffffffffffffffffffffffffffff5d576e7357a4501ddfe92f46681b20a08360001c1115611c20576000600391509150611cbe565b600060018787878760405160008152602001604052604051611c459493929190612b64565b6020604051602081039080840390855afa158015611c67573d6000803e3d6000fd5b505050602060405103519050600073ffffffffffffffffffffffffffffffffffffffff168173ffffffffffffffffffffffffffffffffffffffff1603611cb557600060019250925050611cbe565b80600092509250505b94509492505050565b604051806080016040528060608152602001600015158152602001600073ffffffffffffffffffffffffffffffffffffffff1681526020016000151581525090565b508054611d159061245a565b6000825580601f10611d275750611d46565b601f016020900490600052602060002090810190611d459190611d49565b5b50565b5b80821115611d62576000816000905550600101611d4a565b5090565b600080fd5b600080fd5b6000819050919050565b611d8381611d70565b8114611d8e57600080fd5b50565b600081359050611da081611d7a565b92915050565b600060208284031215611dbc57611dbb611d66565b5b6000611dca84828501611d91565b91505092915050565b60008115159050919050565b611de881611dd3565b82525050565b6000602082019050611e036000830184611ddf565b92915050565b60008060408385031215611e2057611e1f611d66565b5b6000611e2e85828601611d91565b9250506020611e3f85828601611d91565b9150509250929050565b611e5281611dd3565b8114611e5d57600080fd5b50565b600081359050611e6f81611e49565b92915050565b60008060408385031215611e8c57611e8b611d66565b5b6000611e9a85828601611d91565b9250506020611eab85828601611e60565b9150509250929050565b600081519050919050565b600082825260208201905092915050565b60005b83811015611eef578082015181840152602081019050611ed4565b60008484015250505050565b6000601f19601f8301169050919050565b6000611f1782611eb5565b611f218185611ec0565b9350611f31818560208601611ed1565b611f3a81611efb565b840191505092915050565b611f4e81611dd3565b82525050565b600073ffffffffffffffffffffffffffffffffffffffff82169050919050565b6000611f7f82611f54565b9050919050565b611f8f81611f74565b82525050565b60006080830160008301518482036000860152611fb28282611f0c565b9150506020830151611fc76020860182611f45565b506040830151611fda6040860182611f86565b506060830151611fed6060860182611f45565b508091505092915050565b600060208201905081810360008301526120128184611f95565b905092915050565b600080fd5b600080fd5b600080fd5b60008083601f84011261203f5761203e61201a565b5b8235905067ffffffffffffffff81111561205c5761205b61201f565b5b60208301915083600182028301111561207857612077612024565b5b9250929050565b60008083601f8401126120955761209461201a565b5b8235905067ffffffffffffffff8111156120b2576120b161201f565b5b6020830191508360018202830111156120ce576120cd612024565b5b9250929050565b6000806000806000606086880312156120f1576120f0611d66565b5b60006120ff88828901611d91565b955050602086013567ffffffffffffffff8111156121205761211f611d6b565b5b61212c88828901612029565b9450945050604086013567ffffffffffffffff81111561214f5761214e611d6b565b5b61215b8882890161207f565b92509250509295509295909350565b61217381611f74565b811461217e57600080fd5b50565b6000813590506121908161216a565b92915050565b6000602082840312156121ac576121ab611d66565b5b60006121ba84828501612181565b91505092915050565b600080600080600080608087890312156121e0576121df611d66565b5b60006121ee89828a01611d91565b965050602087013567ffffffffffffffff81111561220f5761220e611d6b565b5b61221b89828a01612029565b9550955050604087013567ffffffffffffffff81111561223e5761223d611d6b565b5b61224a89828a0161207f565b9350935050606061225d89828a01611e60565b9150509295509295509295565b600082825260208201905092915050565b7f556e617574686f72697a65640000000000000000000000000000000000000000600082015250565b60006122b1600c8361226a565b91506122bc8261227b565b602082019050919050565b600060208201905081810360008301526122e0816122a4565b9050919050565b7f496e76616c696400000000000000000000000000000000000000000000000000600082015250565b600061231d60078361226a565b9150612328826122e7565b602082019050919050565b6000602082019050818103600083015261234c81612310565b9050919050565b7f496e76616c696420686173680000000000000000000000000000000000000000600082015250565b6000612389600c8361226a565b915061239482612353565b602082019050919050565b600060208201905081810360008301526123b88161237c565b9050919050565b7f616c6c6f77536572766572000000000000000000000000000000000000000000600082015250565b60006123f5600b8361226a565b9150612400826123bf565b602082019050919050565b60006020820190508181036000830152612424816123e8565b9050919050565b7f4e487b7100000000000000000000000000000000000000000000000000000000600052602260045260246000fd5b6000600282049050600182168061247257607f821691505b6020821081036124855761248461242b565b5b50919050565b600081905092915050565b82818337600083830152505050565b60006124b1838561248b565b93506124be838584612496565b82840190509392505050565b60006124d78284866124a5565b91508190509392505050565b600082905092915050565b7f4e487b7100000000000000000000000000000000000000000000000000000000600052604160045260246000fd5b60008190508160005260206000209050919050565b60006020601f8301049050919050565b600082821b905092915050565b60006008830261257f7fffffffffffffffffffffffffffffffffffffffffffffffffffffffffffffffff82612542565b6125898683612542565b95508019841693508086168417925050509392505050565b6000819050919050565b6000819050919050565b60006125d06125cb6125c6846125a1565b6125ab565b6125a1565b9050919050565b6000819050919050565b6125ea836125b5565b6125fe6125f6826125d7565b84845461254f565b825550505050565b600090565b612613612606565b61261e8184846125e1565b505050565b5b818110156126425761263760008261260b565b600181019050612624565b5050565b601f821115612687576126588161251d565b61266184612532565b81016020851015612670578190505b61268461267c85612532565b830182612623565b50505b505050565b600082821c905092915050565b60006126aa6000198460080261268c565b1980831691505092915050565b60006126c38383612699565b9150826002028217905092915050565b6126dd83836124e3565b67ffffffffffffffff8111156126f6576126f56124ee565b5b612700825461245a565b61270b828285612646565b6000601f83116001811461273a5760008415612728578287013590505b61273285826126b7565b86555061279a565b601f1984166127488661251d565b60005b828110156127705784890135825560018201915060208501945060208101905061274b565b8683101561278d5784890135612789601f891682612699565b8355505b6001600288020188555050505b50505050505050565b7f6369640000000000000000000000000000000000000000000000000000000000600082015250565b60006127d960038361226a565b91506127e4826127a3565b602082019050919050565b60006020820190508181036000830152612808816127cc565b9050919050565b7f6d73672e73656e646572206d75737420626520636f6e7472616374206f776e6560008201527f7200000000000000000000000000000000000000000000000000000000000000602082015250565b600061286b60218361226a565b91506128768261280f565b604082019050919050565b6000602082019050818103600083015261289a8161285e565b9050919050565b7f496e76616c696420616464726573730000000000000000000000000000000000600082015250565b60006128d7600f8361226a565b91506128e2826128a1565b602082019050919050565b60006020820190508181036000830152612906816128ca565b9050919050565b7f19457468657265756d205369676e6564204d6573736167653a0a333200000000600082015250565b6000612943601c8361248b565b915061294e8261290d565b601c82019050919050565b6000819050919050565b61297461296f82611d70565b612959565b82525050565b600061298582612936565b91506129918284612963565b60208201915081905092915050565b7f4e487b7100000000000000000000000000000000000000000000000000000000600052602160045260246000fd5b7f45434453413a20696e76616c6964207369676e61747572650000000000000000600082015250565b6000612a0560188361226a565b9150612a10826129cf565b602082019050919050565b60006020820190508181036000830152612a34816129f8565b9050919050565b7f45434453413a20696e76616c6964207369676e6174757265206c656e67746800600082015250565b6000612a71601f8361226a565b9150612a7c82612a3b565b602082019050919050565b60006020820190508181036000830152612aa081612a64565b9050919050565b7f45434453413a20696e76616c6964207369676e6174757265202773272076616c60008201527f7565000000000000000000000000000000000000000000000000000000000000602082015250565b6000612b0360228361226a565b9150612b0e82612aa7565b604082019050919050565b60006020820190508181036000830152612b3281612af6565b9050919050565b612b4281611d70565b82525050565b600060ff82169050919050565b612b5e81612b48565b82525050565b6000608082019050612b796000830187612b39565b612b866020830186612b55565b612b936040830185612b39565b612ba06060830184612b39565b9594505050505056fea26469706673582212207078bc24a5be3ed6986b907b04be9a0156ab404ba5fcc98dadd037c81a72751b64736f6c63430008100033",
  "immutableReferences": {},
  "source": "// SPDX-License-Identifier: MIT\npragma solidity ^0.8.16;\n\nimport \"../node_modules/@openzeppelin/contracts/utils/cryptography/ECDSA.sol\";\n\ncontract Resolver {\n    /* ========== DATA STRUCTURES ========== */\n\n    struct Config {\n        string cid;\n        bool allowServer;\n        address owner;\n        bool isValue;\n    }\n\n    /* ========== STATE VARIABLES ========== */\n\n    address private owner;\n    address private serverSigner;\n    mapping(bytes32 => Config) private resolvers;\n    mapping(bytes32 => bytes32) private secondaryResolvers;\n\n    /* ========== MODIFIERS ========== */\n\n    modifier onlyAuthorized(bytes32 idHash) {\n        require(resolvers[idHash].isValue == true, \"Unauthorized\");\n        if (!resolvers[idHash].allowServer) {\n            require(msg.sender == resolvers[idHash].owner, \"Unauthorized\");\n        } else {\n            require(\n                msg.sender == resolvers[idHash].owner ||\n                    msg.sender == serverSigner,\n                \"Unauthorized\"\n            );\n        }\n        _;\n    }\n\n    modifier validateCid(string calldata cid, bytes memory signature) {\n        require(\n            ECDSA.recover(\n                ECDSA.toEthSignedMessageHash(keccak256(abi.encodePacked(cid))),\n                signature\n            ) == serverSigner,\n            \"Invalid\"\n        );\n        _;\n    }\n\n    /* ========== EVENTS ========== */\n\n    event ResolverCreateEvent(bytes32 indexed hash);\n    event ResolverUpdateEvent(bytes32 indexed hash, string updateType);\n    event ResolverDeleteEvent(bytes32 indexed hash);\n\n    event SecondaryResolverCreateEvent(bytes32 indexed hash);\n    event SecondaryResolverDeleteEvent(bytes32 indexed hash);\n\n    /* ========== CONSTRUCTOR ========== */\n\n    constructor(address _serverSigner) {\n        owner = msg.sender;\n        serverSigner = _serverSigner;\n    }\n\n    function resolve(bytes32 idHash)\n        external\n        view\n        returns (Config memory resolver)\n    {\n        bytes32 secondaryMappingHash = secondaryResolvers[idHash];\n        if (secondaryMappingHash == bytes4(0x0)) {\n            return resolvers[idHash];\n        } else {\n            return resolvers[secondaryMappingHash];\n        }\n    }\n\n    /* ========== MUTATIVE FUNCTIONS ========== */\n\n    function createResolver(\n        bytes32 idHash,\n        string calldata cid,\n        bytes calldata signature,\n        bool allowServer\n    ) external validateCid(cid, signature) {\n        require(idHash != bytes4(0x0), \"Invalid hash\");\n        require(bytes(resolvers[idHash].cid).length == 0, \"Invalid hash\");\n        Config storage config = resolvers[idHash];\n        config.cid = cid;\n        config.allowServer = allowServer;\n        if (msg.sender != serverSigner) {\n            config.owner = msg.sender;\n        }\n        config.isValue = true;\n        emit ResolverCreateEvent(idHash);\n    }\n\n    function updateResolverCid(\n        bytes32 idHash,\n        string calldata cid,\n        bytes calldata signature\n    )\n        external\n        onlyAuthorized(idHash)\n        validateCid(cid, signature)\n        returns (bool success)\n    {\n        resolvers[idHash].cid = cid;\n        emit ResolverUpdateEvent(idHash, \"cid\");\n        return true;\n    }\n\n    function updateResolverAllowServer(bytes32 idHash, bool allowServer)\n        external\n        onlyAuthorized(idHash)\n        returns (bool success)\n    {\n        if (\n            !allowServer &&\n            resolvers[idHash].owner == address(0x0) &&\n            msg.sender != serverSigner\n        ) {\n            resolvers[idHash].owner = msg.sender;\n        }\n        resolvers[idHash].allowServer = allowServer;\n        emit ResolverUpdateEvent(idHash, \"allowServer\");\n        return true;\n    }\n\n    function deleteResolver(bytes32 idHash)\n        external\n        onlyAuthorized(idHash)\n        returns (bool success)\n    {\n        delete resolvers[idHash];\n        emit ResolverDeleteEvent(idHash);\n        return true;\n    }\n\n    function createSecondaryResolver(\n        bytes32 idHash,\n        bytes32 primaryResolverHash\n    ) external onlyAuthorized(primaryResolverHash) {\n        require(idHash != bytes4(0x0), \"Invalid hash\");\n        require(secondaryResolvers[idHash] == bytes4(0x0), \"Invalid\");\n        secondaryResolvers[idHash] = primaryResolverHash;\n        emit SecondaryResolverCreateEvent(idHash);\n    }\n\n    function deleteSecondaryResolver(bytes32 idHash)\n        external\n        onlyAuthorized(secondaryResolvers[idHash])\n        returns (bool success)\n    {\n        require(secondaryResolvers[idHash] != bytes4(0x0), \"Invalid\");\n        delete secondaryResolvers[idHash];\n        emit SecondaryResolverDeleteEvent(idHash);\n        return true;\n    }\n\n    /* ========== INTERNAL FUNCTIONS ========== */\n\n    function changeServerSigner(address _newServerSigner) external {\n        require(msg.sender == owner, \"msg.sender must be contract owner\");\n        require(_newServerSigner != address(0x0), \"Invalid address\");\n        serverSigner = _newServerSigner;\n    }\n}\n",
  "sourcePath": "/Users/joshuablew/Work/wallettree/contracts/Resolver.sol",
  "compiler": {
    "name": "solc",
    "version": "0.8.16+commit.07a7930e.Emscripten.clang"
  },
  "schemaVersion": "3.4.9",
  "updatedAt": "2023-02-24T07:01:01.901Z",
  "devdoc": {
    "kind": "dev",
    "methods": {},
    "version": 1
  },
  "userdoc": {
    "kind": "user",
    "methods": {},
    "version": 1
  }
}