{
  "contractName": "Resolver",
  "abi": [
    {
      "inputs": [
        {
          "internalType": "address",
          "name": "_serverSigner",
          "type": "address"
        }
      ],
      "stateMutability": "nonpayable",
      "type": "constructor"
    },
    {
      "inputs": [
        {
          "internalType": "bytes32",
          "name": "idHash",
          "type": "bytes32"
        }
      ],
      "name": "resolve",
      "outputs": [
        {
          "components": [
            {
              "internalType": "string",
              "name": "cid",
              "type": "string"
            },
            {
              "internalType": "bool",
              "name": "allowServer",
              "type": "bool"
            },
            {
              "internalType": "address",
              "name": "owner",
              "type": "address"
            },
            {
              "internalType": "bool",
              "name": "isValue",
              "type": "bool"
            }
          ],
          "internalType": "struct Resolver.Config",
          "name": "resolver",
          "type": "tuple"
        }
      ],
      "stateMutability": "view",
      "type": "function"
    },
    {
      "inputs": [
        {
          "internalType": "bytes32",
          "name": "idHash",
          "type": "bytes32"
        },
        {
          "internalType": "string",
          "name": "cid",
          "type": "string"
        },
        {
          "internalType": "bytes",
          "name": "signature",
          "type": "bytes"
        },
        {
          "internalType": "bool",
          "name": "allowServer",
          "type": "bool"
        }
      ],
      "name": "createResolver",
      "outputs": [],
      "stateMutability": "nonpayable",
      "type": "function"
    },
    {
      "inputs": [
        {
          "internalType": "bytes32",
          "name": "idHash",
          "type": "bytes32"
        },
        {
          "internalType": "string",
          "name": "cid",
          "type": "string"
        },
        {
          "internalType": "bytes",
          "name": "signature",
          "type": "bytes"
        }
      ],
      "name": "updateResolverCid",
      "outputs": [
        {
          "internalType": "bool",
          "name": "success",
          "type": "bool"
        }
      ],
      "stateMutability": "nonpayable",
      "type": "function"
    },
    {
      "inputs": [
        {
          "internalType": "bytes32",
          "name": "idHash",
          "type": "bytes32"
        },
        {
          "internalType": "bool",
          "name": "allowServer",
          "type": "bool"
        },
        {
          "internalType": "address",
          "name": "newOwner",
          "type": "address"
        }
      ],
      "name": "updateResolverAllowServer",
      "outputs": [
        {
          "internalType": "bool",
          "name": "success",
          "type": "bool"
        }
      ],
      "stateMutability": "nonpayable",
      "type": "function"
    },
    {
      "inputs": [
        {
          "internalType": "bytes32",
          "name": "idHash",
          "type": "bytes32"
        }
      ],
      "name": "deleteResolver",
      "outputs": [
        {
          "internalType": "bool",
          "name": "success",
          "type": "bool"
        }
      ],
      "stateMutability": "nonpayable",
      "type": "function"
    },
    {
      "inputs": [
        {
          "internalType": "bytes32",
          "name": "idHash",
          "type": "bytes32"
        },
        {
          "internalType": "bytes32",
          "name": "primaryResolverHash",
          "type": "bytes32"
        }
      ],
      "name": "createSecondaryResolver",
      "outputs": [],
      "stateMutability": "nonpayable",
      "type": "function"
    },
    {
      "inputs": [
        {
          "internalType": "bytes32",
          "name": "idHash",
          "type": "bytes32"
        }
      ],
      "name": "deleteSecondaryResolver",
      "outputs": [
        {
          "internalType": "bool",
          "name": "success",
          "type": "bool"
        }
      ],
      "stateMutability": "nonpayable",
      "type": "function"
    },
    {
      "inputs": [
        {
          "internalType": "address",
          "name": "_newServerSigner",
          "type": "address"
        }
      ],
      "name": "changeServerSigner",
      "outputs": [],
      "stateMutability": "nonpayable",
      "type": "function"
    }
  ],
  "bytecode": "0x60806040523480156200001157600080fd5b5060405162002baa38038062002baa833981810160405281019062000037919062000129565b336000806101000a81548173ffffffffffffffffffffffffffffffffffffffff021916908373ffffffffffffffffffffffffffffffffffffffff16021790555080600160006101000a81548173ffffffffffffffffffffffffffffffffffffffff021916908373ffffffffffffffffffffffffffffffffffffffff160217905550506200015b565b600080fd5b600073ffffffffffffffffffffffffffffffffffffffff82169050919050565b6000620000f182620000c4565b9050919050565b6200010381620000e4565b81146200010f57600080fd5b50565b6000815190506200012381620000f8565b92915050565b600060208284031215620001425762000141620000bf565b5b6000620001528482850162000112565b91505092915050565b612a3f806200016b6000396000f3fe608060405234801561001057600080fd5b50600436106100885760003560e01c8063611ab9211161005b578063611ab921146101395780639cc77a6614610155578063a11439a114610185578063ec612b76146101b557610088565b80632f87e2431461008d57806338150249146100bd5780635c23bdf5146100d95780635f0acb1e14610109575b600080fd5b6100a760048036038101906100a29190611b87565b6101d1565b6040516100b49190611bcf565b60405180910390f35b6100d760048036038101906100d29190611bea565b610488565b005b6100f360048036038101906100ee9190611b87565b61078b565b6040516101009190611d6d565b60405180910390f35b610123600480360381019061011e9190611e4a565b610a5e565b6040516101309190611bcf565b60405180910390f35b610153600480360381019061014e9190611f0b565b610db6565b005b61016f600480360381019061016a9190611b87565b610ef7565b60405161017c9190611bcf565b60405180910390f35b61019f600480360381019061019a9190611f64565b611181565b6040516101ac9190611bcf565b60405180910390f35b6101cf60048036038101906101ca9190611fb7565b6114e2565b005b600060036000838152602001908152602001600020546000600260008381526020019081526020016000209050600115158160010160159054906101000a900460ff16151514610256576040517f08c379a000000000000000000000000000000000000000000000000000000000815260040161024d906120bb565b60405180910390fd5b8060010160009054906101000a900460ff16610303578060010160019054906101000a900473ffffffffffffffffffffffffffffffffffffffff1673ffffffffffffffffffffffffffffffffffffffff163373ffffffffffffffffffffffffffffffffffffffff16146102fe576040517f08c379a00000000000000000000000000000000000000000000000000000000081526004016102f590612127565b60405180910390fd5b6103ee565b8060010160019054906101000a900473ffffffffffffffffffffffffffffffffffffffff1673ffffffffffffffffffffffffffffffffffffffff163373ffffffffffffffffffffffffffffffffffffffff1614806103ae5750600160009054906101000a900473ffffffffffffffffffffffffffffffffffffffff1673ffffffffffffffffffffffffffffffffffffffff163373ffffffffffffffffffffffffffffffffffffffff16145b6103ed576040517f08c379a00000000000000000000000000000000000000000000000000000000081526004016103e490612127565b60405180910390fd5b5b600060e01b7bffffffffffffffffffffffffffffffffffffffffffffffffffffffff1916600360008681526020019081526020016000205403610466576040517f08c379a000000000000000000000000000000000000000000000000000000000815260040161045d90612193565b60405180910390fd5b6003600085815260200190815260200160002060009055600192505050919050565b806000600260008381526020019081526020016000209050600115158160010160159054906101000a900460ff161515146104f8576040517f08c379a00000000000000000000000000000000000000000000000000000000081526004016104ef906120bb565b60405180910390fd5b8060010160009054906101000a900460ff166105a5578060010160019054906101000a900473ffffffffffffffffffffffffffffffffffffffff1673ffffffffffffffffffffffffffffffffffffffff163373ffffffffffffffffffffffffffffffffffffffff16146105a0576040517f08c379a000000000000000000000000000000000000000000000000000000000815260040161059790612127565b60405180910390fd5b610690565b8060010160019054906101000a900473ffffffffffffffffffffffffffffffffffffffff1673ffffffffffffffffffffffffffffffffffffffff163373ffffffffffffffffffffffffffffffffffffffff1614806106505750600160009054906101000a900473ffffffffffffffffffffffffffffffffffffffff1673ffffffffffffffffffffffffffffffffffffffff163373ffffffffffffffffffffffffffffffffffffffff16145b61068f576040517f08c379a000000000000000000000000000000000000000000000000000000000815260040161068690612127565b60405180910390fd5b5b600060e01b7bffffffffffffffffffffffffffffffffffffffffffffffffffffffff191684036106f5576040517f08c379a00000000000000000000000000000000000000000000000000000000081526004016106ec906121ff565b60405180910390fd5b600060e01b7bffffffffffffffffffffffffffffffffffffffffffffffffffffffff191660036000868152602001908152602001600020541461076d576040517f08c379a000000000000000000000000000000000000000000000000000000000815260040161076490612193565b60405180910390fd5b82600360008681526020019081526020016000208190555050505050565b610793611aa8565b600060036000848152602001908152602001600020549050600060e01b7bffffffffffffffffffffffffffffffffffffffffffffffffffffffff1916810361091957600260008481526020019081526020016000206040518060800160405290816000820180546108039061224e565b80601f016020809104026020016040519081016040528092919081815260200182805461082f9061224e565b801561087c5780601f106108515761010080835404028352916020019161087c565b820191906000526020600020905b81548152906001019060200180831161085f57829003601f168201915b505050505081526020016001820160009054906101000a900460ff161515151581526020016001820160019054906101000a900473ffffffffffffffffffffffffffffffffffffffff1673ffffffffffffffffffffffffffffffffffffffff1673ffffffffffffffffffffffffffffffffffffffff1681526020016001820160159054906101000a900460ff161515151581525050915050610a59565b600260008281526020019081526020016000206040518060800160405290816000820180546109479061224e565b80601f01602080910402602001604051908101604052809291908181526020018280546109739061224e565b80156109c05780601f10610995576101008083540402835291602001916109c0565b820191906000526020600020905b8154815290600101906020018083116109a357829003601f168201915b505050505081526020016001820160009054906101000a900460ff161515151581526020016001820160019054906101000a900473ffffffffffffffffffffffffffffffffffffffff1673ffffffffffffffffffffffffffffffffffffffff1673ffffffffffffffffffffffffffffffffffffffff1681526020016001820160159054906101000a900460ff1615151515815250509150505b919050565b6000856000600260008381526020019081526020016000209050600115158160010160159054906101000a900460ff16151514610ad0576040517f08c379a0000000000000000000000000000000000000000000000000000000008152600401610ac7906120bb565b60405180910390fd5b8060010160009054906101000a900460ff16610b7d578060010160019054906101000a900473ffffffffffffffffffffffffffffffffffffffff1673ffffffffffffffffffffffffffffffffffffffff163373ffffffffffffffffffffffffffffffffffffffff1614610b78576040517f08c379a0000000000000000000000000000000000000000000000000000000008152600401610b6f90612127565b60405180910390fd5b610c68565b8060010160019054906101000a900473ffffffffffffffffffffffffffffffffffffffff1673ffffffffffffffffffffffffffffffffffffffff163373ffffffffffffffffffffffffffffffffffffffff161480610c285750600160009054906101000a900473ffffffffffffffffffffffffffffffffffffffff1673ffffffffffffffffffffffffffffffffffffffff163373ffffffffffffffffffffffffffffffffffffffff16145b610c67576040517f08c379a0000000000000000000000000000000000000000000000000000000008152600401610c5e90612127565b60405180910390fd5b5b868686868080601f016020809104026020016040519081016040528093929190818152602001838380828437600081840152601f19601f82011690508083019250505050505050600160009054906101000a900473ffffffffffffffffffffffffffffffffffffffff1673ffffffffffffffffffffffffffffffffffffffff16610d22610d1c8585604051602001610d019291906122be565b604051602081830303815290604052805190602001206117b8565b836117e8565b73ffffffffffffffffffffffffffffffffffffffff1614610d78576040517f08c379a0000000000000000000000000000000000000000000000000000000008152600401610d6f90612193565b60405180910390fd5b6000600260008d815260200190815260200160002090508a8a826000019182610da29291906124c7565b506001965050505050505095945050505050565b60008054906101000a900473ffffffffffffffffffffffffffffffffffffffff1673ffffffffffffffffffffffffffffffffffffffff163373ffffffffffffffffffffffffffffffffffffffff1614610e44576040517f08c379a0000000000000000000000000000000000000000000000000000000008152600401610e3b90612609565b60405180910390fd5b600073ffffffffffffffffffffffffffffffffffffffff168173ffffffffffffffffffffffffffffffffffffffff1603610eb3576040517f08c379a0000000000000000000000000000000000000000000000000000000008152600401610eaa90612675565b60405180910390fd5b80600160006101000a81548173ffffffffffffffffffffffffffffffffffffffff021916908373ffffffffffffffffffffffffffffffffffffffff16021790555050565b6000816000600260008381526020019081526020016000209050600115158160010160159054906101000a900460ff16151514610f69576040517f08c379a0000000000000000000000000000000000000000000000000000000008152600401610f60906120bb565b60405180910390fd5b8060010160009054906101000a900460ff16611016578060010160019054906101000a900473ffffffffffffffffffffffffffffffffffffffff1673ffffffffffffffffffffffffffffffffffffffff163373ffffffffffffffffffffffffffffffffffffffff1614611011576040517f08c379a000000000000000000000000000000000000000000000000000000000815260040161100890612127565b60405180910390fd5b611101565b8060010160019054906101000a900473ffffffffffffffffffffffffffffffffffffffff1673ffffffffffffffffffffffffffffffffffffffff163373ffffffffffffffffffffffffffffffffffffffff1614806110c15750600160009054906101000a900473ffffffffffffffffffffffffffffffffffffffff1673ffffffffffffffffffffffffffffffffffffffff163373ffffffffffffffffffffffffffffffffffffffff16145b611100576040517f08c379a00000000000000000000000000000000000000000000000000000000081526004016110f790612127565b60405180910390fd5b5b60026000858152602001908152602001600020600080820160006111259190611aea565b6001820160006101000a81549060ff02191690556001820160016101000a81549073ffffffffffffffffffffffffffffffffffffffff02191690556001820160156101000a81549060ff02191690555050600192505050919050565b6000836000600260008381526020019081526020016000209050600115158160010160159054906101000a900460ff161515146111f3576040517f08c379a00000000000000000000000000000000000000000000000000000000081526004016111ea906120bb565b60405180910390fd5b8060010160009054906101000a900460ff166112a0578060010160019054906101000a900473ffffffffffffffffffffffffffffffffffffffff1673ffffffffffffffffffffffffffffffffffffffff163373ffffffffffffffffffffffffffffffffffffffff161461129b576040517f08c379a000000000000000000000000000000000000000000000000000000000815260040161129290612127565b60405180910390fd5b61138b565b8060010160019054906101000a900473ffffffffffffffffffffffffffffffffffffffff1673ffffffffffffffffffffffffffffffffffffffff163373ffffffffffffffffffffffffffffffffffffffff16148061134b5750600160009054906101000a900473ffffffffffffffffffffffffffffffffffffffff1673ffffffffffffffffffffffffffffffffffffffff163373ffffffffffffffffffffffffffffffffffffffff16145b61138a576040517f08c379a000000000000000000000000000000000000000000000000000000000815260040161138190612127565b60405180910390fd5b5b6000600260008881526020019081526020016000209050851580156114005750600073ffffffffffffffffffffffffffffffffffffffff168160010160019054906101000a900473ffffffffffffffffffffffffffffffffffffffff1673ffffffffffffffffffffffffffffffffffffffff16145b156114b857600073ffffffffffffffffffffffffffffffffffffffff168573ffffffffffffffffffffffffffffffffffffffff1603611474576040517f08c379a000000000000000000000000000000000000000000000000000000000815260040161146b906126e1565b60405180910390fd5b848160010160016101000a81548173ffffffffffffffffffffffffffffffffffffffff021916908373ffffffffffffffffffffffffffffffffffffffff1602179055505b858160010160006101000a81548160ff021916908315150217905550600193505050509392505050565b848484848080601f016020809104026020016040519081016040528093929190818152602001838380828437600081840152601f19601f82011690508083019250505050505050600160009054906101000a900473ffffffffffffffffffffffffffffffffffffffff1673ffffffffffffffffffffffffffffffffffffffff1661159c611596858560405160200161157b9291906122be565b604051602081830303815290604052805190602001206117b8565b836117e8565b73ffffffffffffffffffffffffffffffffffffffff16146115f2576040517f08c379a00000000000000000000000000000000000000000000000000000000081526004016115e990612193565b60405180910390fd5b600060e01b7bffffffffffffffffffffffffffffffffffffffffffffffffffffffff19168903611657576040517f08c379a000000000000000000000000000000000000000000000000000000000815260040161164e906121ff565b60405180910390fd5b6000600260008b81526020019081526020016000209050600015158160010160159054906101000a900460ff161515146116c6576040517f08c379a00000000000000000000000000000000000000000000000000000000081526004016116bd9061274d565b60405180910390fd5b88888260000191826116d99291906124c7565b50848160010160006101000a81548160ff021916908315150217905550600160009054906101000a900473ffffffffffffffffffffffffffffffffffffffff1673ffffffffffffffffffffffffffffffffffffffff163373ffffffffffffffffffffffffffffffffffffffff161461178f57338160010160016101000a81548173ffffffffffffffffffffffffffffffffffffffff021916908373ffffffffffffffffffffffffffffffffffffffff1602179055505b60018160010160156101000a81548160ff02191690831515021790555050505050505050505050565b6000816040516020016117cb91906127da565b604051602081830303815290604052805190602001209050919050565b60008060006117f7858561180f565b9150915061180481611860565b819250505092915050565b60008060418351036118505760008060006020860151925060408601519150606086015160001a9050611844878285856119c6565b94509450505050611859565b60006002915091505b9250929050565b6000600481111561187457611873612800565b5b81600481111561188757611886612800565b5b03156119c357600160048111156118a1576118a0612800565b5b8160048111156118b4576118b3612800565b5b036118f4576040517f08c379a00000000000000000000000000000000000000000000000000000000081526004016118eb9061287b565b60405180910390fd5b6002600481111561190857611907612800565b5b81600481111561191b5761191a612800565b5b0361195b576040517f08c379a0000000000000000000000000000000000000000000000000000000008152600401611952906128e7565b60405180910390fd5b6003600481111561196f5761196e612800565b5b81600481111561198257611981612800565b5b036119c2576040517f08c379a00000000000000000000000000000000000000000000000000000000081526004016119b990612979565b60405180910390fd5b5b50565b6000807f7fffffffffffffffffffffffffffffff5d576e7357a4501ddfe92f46681b20a08360001c1115611a01576000600391509150611a9f565b600060018787878760405160008152602001604052604051611a2694939291906129c4565b6020604051602081039080840390855afa158015611a48573d6000803e3d6000fd5b505050602060405103519050600073ffffffffffffffffffffffffffffffffffffffff168173ffffffffffffffffffffffffffffffffffffffff1603611a9657600060019250925050611a9f565b80600092509250505b94509492505050565b604051806080016040528060608152602001600015158152602001600073ffffffffffffffffffffffffffffffffffffffff1681526020016000151581525090565b508054611af69061224e565b6000825580601f10611b085750611b27565b601f016020900490600052602060002090810190611b269190611b2a565b5b50565b5b80821115611b43576000816000905550600101611b2b565b5090565b600080fd5b600080fd5b6000819050919050565b611b6481611b51565b8114611b6f57600080fd5b50565b600081359050611b8181611b5b565b92915050565b600060208284031215611b9d57611b9c611b47565b5b6000611bab84828501611b72565b91505092915050565b60008115159050919050565b611bc981611bb4565b82525050565b6000602082019050611be46000830184611bc0565b92915050565b60008060408385031215611c0157611c00611b47565b5b6000611c0f85828601611b72565b9250506020611c2085828601611b72565b9150509250929050565b600081519050919050565b600082825260208201905092915050565b60005b83811015611c64578082015181840152602081019050611c49565b60008484015250505050565b6000601f19601f8301169050919050565b6000611c8c82611c2a565b611c968185611c35565b9350611ca6818560208601611c46565b611caf81611c70565b840191505092915050565b611cc381611bb4565b82525050565b600073ffffffffffffffffffffffffffffffffffffffff82169050919050565b6000611cf482611cc9565b9050919050565b611d0481611ce9565b82525050565b60006080830160008301518482036000860152611d278282611c81565b9150506020830151611d3c6020860182611cba565b506040830151611d4f6040860182611cfb565b506060830151611d626060860182611cba565b508091505092915050565b60006020820190508181036000830152611d878184611d0a565b905092915050565b600080fd5b600080fd5b600080fd5b60008083601f840112611db457611db3611d8f565b5b8235905067ffffffffffffffff811115611dd157611dd0611d94565b5b602083019150836001820283011115611ded57611dec611d99565b5b9250929050565b60008083601f840112611e0a57611e09611d8f565b5b8235905067ffffffffffffffff811115611e2757611e26611d94565b5b602083019150836001820283011115611e4357611e42611d99565b5b9250929050565b600080600080600060608688031215611e6657611e65611b47565b5b6000611e7488828901611b72565b955050602086013567ffffffffffffffff811115611e9557611e94611b4c565b5b611ea188828901611d9e565b9450945050604086013567ffffffffffffffff811115611ec457611ec3611b4c565b5b611ed088828901611df4565b92509250509295509295909350565b611ee881611ce9565b8114611ef357600080fd5b50565b600081359050611f0581611edf565b92915050565b600060208284031215611f2157611f20611b47565b5b6000611f2f84828501611ef6565b91505092915050565b611f4181611bb4565b8114611f4c57600080fd5b50565b600081359050611f5e81611f38565b92915050565b600080600060608486031215611f7d57611f7c611b47565b5b6000611f8b86828701611b72565b9350506020611f9c86828701611f4f565b9250506040611fad86828701611ef6565b9150509250925092565b60008060008060008060808789031215611fd457611fd3611b47565b5b6000611fe289828a01611b72565b965050602087013567ffffffffffffffff81111561200357612002611b4c565b5b61200f89828a01611d9e565b9550955050604087013567ffffffffffffffff81111561203257612031611b4c565b5b61203e89828a01611df4565b9350935050606061205189828a01611f4f565b9150509295509295509295565b600082825260208201905092915050565b7f496e76616c6964207265736f6c76657200000000000000000000000000000000600082015250565b60006120a560108361205e565b91506120b08261206f565b602082019050919050565b600060208201905081810360008301526120d481612098565b9050919050565b7f556e617574686f72697a65640000000000000000000000000000000000000000600082015250565b6000612111600c8361205e565b915061211c826120db565b602082019050919050565b6000602082019050818103600083015261214081612104565b9050919050565b7f496e76616c696400000000000000000000000000000000000000000000000000600082015250565b600061217d60078361205e565b915061218882612147565b602082019050919050565b600060208201905081810360008301526121ac81612170565b9050919050565b7f496e76616c696420686173680000000000000000000000000000000000000000600082015250565b60006121e9600c8361205e565b91506121f4826121b3565b602082019050919050565b60006020820190508181036000830152612218816121dc565b9050919050565b7f4e487b7100000000000000000000000000000000000000000000000000000000600052602260045260246000fd5b6000600282049050600182168061226657607f821691505b6020821081036122795761227861221f565b5b50919050565b600081905092915050565b82818337600083830152505050565b60006122a5838561227f565b93506122b283858461228a565b82840190509392505050565b60006122cb828486612299565b91508190509392505050565b600082905092915050565b7f4e487b7100000000000000000000000000000000000000000000000000000000600052604160045260246000fd5b60008190508160005260206000209050919050565b60006020601f8301049050919050565b600082821b905092915050565b6000600883026123737fffffffffffffffffffffffffffffffffffffffffffffffffffffffffffffffff82612336565b61237d8683612336565b95508019841693508086168417925050509392505050565b6000819050919050565b6000819050919050565b60006123c46123bf6123ba84612395565b61239f565b612395565b9050919050565b6000819050919050565b6123de836123a9565b6123f26123ea826123cb565b848454612343565b825550505050565b600090565b6124076123fa565b6124128184846123d5565b505050565b5b818110156124365761242b6000826123ff565b600181019050612418565b5050565b601f82111561247b5761244c81612311565b61245584612326565b81016020851015612464578190505b61247861247085612326565b830182612417565b50505b505050565b600082821c905092915050565b600061249e60001984600802612480565b1980831691505092915050565b60006124b7838361248d565b9150826002028217905092915050565b6124d183836122d7565b67ffffffffffffffff8111156124ea576124e96122e2565b5b6124f4825461224e565b6124ff82828561243a565b6000601f83116001811461252e576000841561251c578287013590505b61252685826124ab565b86555061258e565b601f19841661253c86612311565b60005b828110156125645784890135825560018201915060208501945060208101905061253f565b86831015612581578489013561257d601f89168261248d565b8355505b6001600288020188555050505b50505050505050565b7f6d73672e73656e646572206d75737420626520636f6e7472616374206f776e6560008201527f7200000000000000000000000000000000000000000000000000000000000000602082015250565b60006125f360218361205e565b91506125fe82612597565b604082019050919050565b60006020820190508181036000830152612622816125e6565b9050919050565b7f496e76616c696420616464726573730000000000000000000000000000000000600082015250565b600061265f600f8361205e565b915061266a82612629565b602082019050919050565b6000602082019050818103600083015261268e81612652565b9050919050565b7f4f776e6572206d7573742062652076616c696420616464726573730000000000600082015250565b60006126cb601b8361205e565b91506126d682612695565b602082019050919050565b600060208201905081810360008301526126fa816126be565b9050919050565b7f496e76616c696420726571756573740000000000000000000000000000000000600082015250565b6000612737600f8361205e565b915061274282612701565b602082019050919050565b600060208201905081810360008301526127668161272a565b9050919050565b7f19457468657265756d205369676e6564204d6573736167653a0a333200000000600082015250565b60006127a3601c8361227f565b91506127ae8261276d565b601c82019050919050565b6000819050919050565b6127d46127cf82611b51565b6127b9565b82525050565b60006127e582612796565b91506127f182846127c3565b60208201915081905092915050565b7f4e487b7100000000000000000000000000000000000000000000000000000000600052602160045260246000fd5b7f45434453413a20696e76616c6964207369676e61747572650000000000000000600082015250565b600061286560188361205e565b91506128708261282f565b602082019050919050565b6000602082019050818103600083015261289481612858565b9050919050565b7f45434453413a20696e76616c6964207369676e6174757265206c656e67746800600082015250565b60006128d1601f8361205e565b91506128dc8261289b565b602082019050919050565b60006020820190508181036000830152612900816128c4565b9050919050565b7f45434453413a20696e76616c6964207369676e6174757265202773272076616c60008201527f7565000000000000000000000000000000000000000000000000000000000000602082015250565b600061296360228361205e565b915061296e82612907565b604082019050919050565b6000602082019050818103600083015261299281612956565b9050919050565b6129a281611b51565b82525050565b600060ff82169050919050565b6129be816129a8565b82525050565b60006080820190506129d96000830187612999565b6129e660208301866129b5565b6129f36040830185612999565b612a006060830184612999565b9594505050505056fea264697066735822122029a83cf39799d964f50faa411bfe5d5b337dd85459e6481b9b4268eb7d2acd1a64736f6c63430008100033",
  "immutableReferences": {},
  "source": "// SPDX-License-Identifier: MIT\npragma solidity ^0.8.16;\n\nimport \"@openzeppelin/contracts/utils/cryptography/ECDSA.sol\";\n\ncontract Resolver {\n    /* ========== DATA STRUCTURES ========== */\n\n    struct Config {\n        string cid;\n        bool allowServer;\n        address owner;\n        bool isValue;\n    }\n\n    /* ========== STATE VARIABLES ========== */\n\n    address private owner;\n    address private serverSigner;\n    mapping(bytes32 => Config) private resolvers;\n    mapping(bytes32 => bytes32) private secondaryResolvers;\n\n    /* ========== MODIFIERS ========== */\n\n    modifier onlyAuthorized(bytes32 idHash) {\n        Config storage resolver = resolvers[idHash];\n        require(resolver.isValue == true, \"Invalid resolver\");\n        if (!resolver.allowServer) {\n            require(msg.sender == resolver.owner, \"Unauthorized\");\n        } else {\n            require(\n                msg.sender == resolver.owner || msg.sender == serverSigner,\n                \"Unauthorized\"\n            );\n        }\n        _;\n    }\n\n    modifier validateCid(string calldata cid, bytes memory signature) {\n        require(\n            ECDSA.recover(\n                ECDSA.toEthSignedMessageHash(keccak256(abi.encodePacked(cid))),\n                signature\n            ) == serverSigner,\n            \"Invalid\"\n        );\n        _;\n    }\n\n    /* ========== CONSTRUCTOR ========== */\n\n    constructor(address _serverSigner) {\n        owner = msg.sender;\n        serverSigner = _serverSigner;\n    }\n\n    function resolve(bytes32 idHash)\n        external\n        view\n        returns (Config memory resolver)\n    {\n        bytes32 secondaryMappingHash = secondaryResolvers[idHash];\n        if (secondaryMappingHash == bytes4(0x0)) {\n            return resolvers[idHash];\n        } else {\n            return resolvers[secondaryMappingHash];\n        }\n    }\n\n    /* ========== MUTATIVE FUNCTIONS ========== */\n\n    function createResolver(\n        bytes32 idHash,\n        string calldata cid,\n        bytes calldata signature,\n        bool allowServer\n    ) external validateCid(cid, signature) {\n        require(idHash != bytes4(0x0), \"Invalid hash\");\n        Config storage resolver = resolvers[idHash];\n        require(resolver.isValue == false, \"Invalid request\");\n        resolver.cid = cid;\n        resolver.allowServer = allowServer;\n        if (msg.sender != serverSigner) {\n            resolver.owner = msg.sender;\n        }\n        resolver.isValue = true;\n    }\n\n    function updateResolverCid(\n        bytes32 idHash,\n        string calldata cid,\n        bytes calldata signature\n    )\n        external\n        onlyAuthorized(idHash)\n        validateCid(cid, signature)\n        returns (bool success)\n    {\n        Config storage resolver = resolvers[idHash];\n        resolver.cid = cid;\n        return true;\n    }\n\n    function updateResolverAllowServer(\n        bytes32 idHash,\n        bool allowServer,\n        address newOwner\n    ) external onlyAuthorized(idHash) returns (bool success) {\n        Config storage resolver = resolvers[idHash];\n        if (!allowServer && resolver.owner == address(0x0)) {\n            require(newOwner != address(0x0), \"Owner must be valid address\");\n            resolver.owner = newOwner;\n        }\n        resolver.allowServer = allowServer;\n        return true;\n    }\n\n    function deleteResolver(bytes32 idHash)\n        external\n        onlyAuthorized(idHash)\n        returns (bool success)\n    {\n        delete resolvers[idHash];\n        return true;\n    }\n\n    function createSecondaryResolver(\n        bytes32 idHash,\n        bytes32 primaryResolverHash\n    ) external onlyAuthorized(primaryResolverHash) {\n        require(idHash != bytes4(0x0), \"Invalid hash\");\n        require(secondaryResolvers[idHash] == bytes4(0x0), \"Invalid\");\n        secondaryResolvers[idHash] = primaryResolverHash;\n    }\n\n    function deleteSecondaryResolver(bytes32 idHash)\n        external\n        onlyAuthorized(secondaryResolvers[idHash])\n        returns (bool success)\n    {\n        require(secondaryResolvers[idHash] != bytes4(0x0), \"Invalid\");\n        delete secondaryResolvers[idHash];\n        return true;\n    }\n\n    /* ========== INTERNAL FUNCTIONS ========== */\n\n    function changeServerSigner(address _newServerSigner) external {\n        require(msg.sender == owner, \"msg.sender must be contract owner\");\n        require(_newServerSigner != address(0x0), \"Invalid address\");\n        serverSigner = _newServerSigner;\n    }\n}\n",
  "sourcePath": "/Users/joshuablew/Work/wallettree/contracts/Resolver.sol",
  "compiler": {
    "name": "solc",
    "version": "0.8.16+commit.07a7930e.Emscripten.clang"
  },
  "schemaVersion": "3.4.9",
  "updatedAt": "2023-02-27T03:23:57.912Z",
  "devdoc": {
    "kind": "dev",
    "methods": {},
    "version": 1
  },
  "userdoc": {
    "kind": "user",
    "methods": {},
    "version": 1
  }
}